{
  "address": "0xB57e8771F56792f27335916454eCed62B8a62060",
  "abi": [
    {
      "inputs": [
        {
          "components": [
            {
              "internalType": "enum EpicGame.Class",
              "name": "heroIndex",
              "type": "uint8"
            },
            {
              "internalType": "uint256",
              "name": "hp",
              "type": "uint256"
            },
            {
              "internalType": "uint256",
              "name": "maxHp",
              "type": "uint256"
            },
            {
              "internalType": "uint256",
              "name": "attackDamage",
              "type": "uint256"
            },
            {
              "internalType": "string",
              "name": "name",
              "type": "string"
            },
            {
              "internalType": "string",
              "name": "imageURI",
              "type": "string"
            }
          ],
          "internalType": "struct EpicGame.Hero[]",
          "name": "bases",
          "type": "tuple[]"
        },
        {
          "components": [
            {
              "internalType": "uint256",
              "name": "hp",
              "type": "uint256"
            },
            {
              "internalType": "uint256",
              "name": "maxHp",
              "type": "uint256"
            },
            {
              "internalType": "uint256",
              "name": "attackDamage",
              "type": "uint256"
            },
            {
              "internalType": "string",
              "name": "name",
              "type": "string"
            }
          ],
          "internalType": "struct EpicGame.Boss",
          "name": "bossAttr",
          "type": "tuple"
        }
      ],
      "stateMutability": "nonpayable",
      "type": "constructor"
    },
    {
      "anonymous": false,
      "inputs": [
        {
          "indexed": true,
          "internalType": "address",
          "name": "owner",
          "type": "address"
        },
        {
          "indexed": true,
          "internalType": "address",
          "name": "approved",
          "type": "address"
        },
        {
          "indexed": true,
          "internalType": "uint256",
          "name": "tokenId",
          "type": "uint256"
        }
      ],
      "name": "Approval",
      "type": "event"
    },
    {
      "anonymous": false,
      "inputs": [
        {
          "indexed": true,
          "internalType": "address",
          "name": "owner",
          "type": "address"
        },
        {
          "indexed": true,
          "internalType": "address",
          "name": "operator",
          "type": "address"
        },
        {
          "indexed": false,
          "internalType": "bool",
          "name": "approved",
          "type": "bool"
        }
      ],
      "name": "ApprovalForAll",
      "type": "event"
    },
    {
      "anonymous": false,
      "inputs": [
        {
          "indexed": false,
          "internalType": "address",
          "name": "from",
          "type": "address"
        },
        {
          "indexed": false,
          "internalType": "string",
          "name": "heroName",
          "type": "string"
        },
        {
          "indexed": false,
          "internalType": "uint256",
          "name": "nftNumber",
          "type": "uint256"
        }
      ],
      "name": "CreatedHero",
      "type": "event"
    },
    {
      "anonymous": false,
      "inputs": [
        {
          "indexed": false,
          "internalType": "uint256",
          "name": "tokenId",
          "type": "uint256"
        },
        {
          "indexed": false,
          "internalType": "uint256",
          "name": "bossHp",
          "type": "uint256"
        },
        {
          "indexed": false,
          "internalType": "uint256",
          "name": "heroeHp",
          "type": "uint256"
        }
      ],
      "name": "HitBoss",
      "type": "event"
    },
    {
      "anonymous": false,
      "inputs": [
        {
          "indexed": true,
          "internalType": "address",
          "name": "from",
          "type": "address"
        },
        {
          "indexed": true,
          "internalType": "address",
          "name": "to",
          "type": "address"
        },
        {
          "indexed": true,
          "internalType": "uint256",
          "name": "tokenId",
          "type": "uint256"
        }
      ],
      "name": "Transfer",
      "type": "event"
    },
    {
      "inputs": [
        {
          "internalType": "address",
          "name": "to",
          "type": "address"
        },
        {
          "internalType": "uint256",
          "name": "tokenId",
          "type": "uint256"
        }
      ],
      "name": "approve",
      "outputs": [],
      "stateMutability": "nonpayable",
      "type": "function"
    },
    {
      "inputs": [
        {
          "internalType": "uint256",
          "name": "_tokenId",
          "type": "uint256"
        }
      ],
      "name": "attackBoss",
      "outputs": [],
      "stateMutability": "payable",
      "type": "function"
    },
    {
      "inputs": [
        {
          "internalType": "address",
          "name": "owner",
          "type": "address"
        }
      ],
      "name": "balanceOf",
      "outputs": [
        {
          "internalType": "uint256",
          "name": "",
          "type": "uint256"
        }
      ],
      "stateMutability": "view",
      "type": "function"
    },
    {
      "inputs": [
        {
          "internalType": "enum EpicGame.Class",
          "name": "",
          "type": "uint8"
        }
      ],
      "name": "baseHeroes",
      "outputs": [
        {
          "internalType": "enum EpicGame.Class",
          "name": "heroIndex",
          "type": "uint8"
        },
        {
          "internalType": "uint256",
          "name": "hp",
          "type": "uint256"
        },
        {
          "internalType": "uint256",
          "name": "maxHp",
          "type": "uint256"
        },
        {
          "internalType": "uint256",
          "name": "attackDamage",
          "type": "uint256"
        },
        {
          "internalType": "string",
          "name": "name",
          "type": "string"
        },
        {
          "internalType": "string",
          "name": "imageURI",
          "type": "string"
        }
      ],
      "stateMutability": "view",
      "type": "function"
    },
    {
      "inputs": [],
      "name": "boss",
      "outputs": [
        {
          "internalType": "uint256",
          "name": "hp",
          "type": "uint256"
        },
        {
          "internalType": "uint256",
          "name": "maxHp",
          "type": "uint256"
        },
        {
          "internalType": "uint256",
          "name": "attackDamage",
          "type": "uint256"
        },
        {
          "internalType": "string",
          "name": "name",
          "type": "string"
        }
      ],
      "stateMutability": "view",
      "type": "function"
    },
    {
      "inputs": [
        {
          "internalType": "enum EpicGame.Class",
          "name": "",
          "type": "uint8"
        }
      ],
      "name": "classes",
      "outputs": [
        {
          "internalType": "string",
          "name": "",
          "type": "string"
        }
      ],
      "stateMutability": "view",
      "type": "function"
    },
    {
      "inputs": [
        {
          "internalType": "uint256",
          "name": "tokenId",
          "type": "uint256"
        }
      ],
      "name": "getApproved",
      "outputs": [
        {
          "internalType": "address",
          "name": "",
          "type": "address"
        }
      ],
      "stateMutability": "view",
      "type": "function"
    },
    {
      "inputs": [
        {
          "internalType": "uint256",
          "name": "",
          "type": "uint256"
        }
      ],
      "name": "heroesHolderAttr",
      "outputs": [
        {
          "internalType": "enum EpicGame.Class",
          "name": "heroIndex",
          "type": "uint8"
        },
        {
          "internalType": "uint256",
          "name": "hp",
          "type": "uint256"
        },
        {
          "internalType": "uint256",
          "name": "maxHp",
          "type": "uint256"
        },
        {
          "internalType": "uint256",
          "name": "attackDamage",
          "type": "uint256"
        },
        {
          "internalType": "string",
          "name": "name",
          "type": "string"
        },
        {
          "internalType": "string",
          "name": "imageURI",
          "type": "string"
        }
      ],
      "stateMutability": "view",
      "type": "function"
    },
    {
      "inputs": [
        {
          "internalType": "address",
          "name": "owner",
          "type": "address"
        },
        {
          "internalType": "address",
          "name": "operator",
          "type": "address"
        }
      ],
      "name": "isApprovedForAll",
      "outputs": [
        {
          "internalType": "bool",
          "name": "",
          "type": "bool"
        }
      ],
      "stateMutability": "view",
      "type": "function"
    },
    {
      "inputs": [
        {
          "internalType": "enum EpicGame.Class",
          "name": "choice",
          "type": "uint8"
        },
        {
          "internalType": "string",
          "name": "_name",
          "type": "string"
        },
        {
          "internalType": "string",
          "name": "_imageURI",
          "type": "string"
        }
      ],
      "name": "mintHero",
      "outputs": [],
      "stateMutability": "payable",
      "type": "function"
    },
    {
      "inputs": [],
      "name": "name",
      "outputs": [
        {
          "internalType": "string",
          "name": "",
          "type": "string"
        }
      ],
      "stateMutability": "view",
      "type": "function"
    },
    {
      "inputs": [
        {
          "internalType": "address",
          "name": "",
          "type": "address"
        }
      ],
      "name": "nftHolders",
      "outputs": [
        {
          "internalType": "uint256",
          "name": "",
          "type": "uint256"
        }
      ],
      "stateMutability": "view",
      "type": "function"
    },
    {
      "inputs": [
        {
          "internalType": "uint256",
          "name": "tokenId",
          "type": "uint256"
        }
      ],
      "name": "ownerOf",
      "outputs": [
        {
          "internalType": "address",
          "name": "",
          "type": "address"
        }
      ],
      "stateMutability": "view",
      "type": "function"
    },
    {
      "inputs": [
        {
          "internalType": "address",
          "name": "from",
          "type": "address"
        },
        {
          "internalType": "address",
          "name": "to",
          "type": "address"
        },
        {
          "internalType": "uint256",
          "name": "tokenId",
          "type": "uint256"
        }
      ],
      "name": "safeTransferFrom",
      "outputs": [],
      "stateMutability": "nonpayable",
      "type": "function"
    },
    {
      "inputs": [
        {
          "internalType": "address",
          "name": "from",
          "type": "address"
        },
        {
          "internalType": "address",
          "name": "to",
          "type": "address"
        },
        {
          "internalType": "uint256",
          "name": "tokenId",
          "type": "uint256"
        },
        {
          "internalType": "bytes",
          "name": "data",
          "type": "bytes"
        }
      ],
      "name": "safeTransferFrom",
      "outputs": [],
      "stateMutability": "nonpayable",
      "type": "function"
    },
    {
      "inputs": [
        {
          "internalType": "address",
          "name": "operator",
          "type": "address"
        },
        {
          "internalType": "bool",
          "name": "approved",
          "type": "bool"
        }
      ],
      "name": "setApprovalForAll",
      "outputs": [],
      "stateMutability": "nonpayable",
      "type": "function"
    },
    {
      "inputs": [
        {
          "internalType": "bytes4",
          "name": "interfaceId",
          "type": "bytes4"
        }
      ],
      "name": "supportsInterface",
      "outputs": [
        {
          "internalType": "bool",
          "name": "",
          "type": "bool"
        }
      ],
      "stateMutability": "view",
      "type": "function"
    },
    {
      "inputs": [],
      "name": "symbol",
      "outputs": [
        {
          "internalType": "string",
          "name": "",
          "type": "string"
        }
      ],
      "stateMutability": "view",
      "type": "function"
    },
    {
      "inputs": [
        {
          "internalType": "uint256",
          "name": "_tokenId",
          "type": "uint256"
        }
      ],
      "name": "tokenURI",
      "outputs": [
        {
          "internalType": "string",
          "name": "",
          "type": "string"
        }
      ],
      "stateMutability": "view",
      "type": "function"
    },
    {
      "inputs": [
        {
          "internalType": "address",
          "name": "from",
          "type": "address"
        },
        {
          "internalType": "address",
          "name": "to",
          "type": "address"
        },
        {
          "internalType": "uint256",
          "name": "tokenId",
          "type": "uint256"
        }
      ],
      "name": "transferFrom",
      "outputs": [],
      "stateMutability": "nonpayable",
      "type": "function"
    }
  ],
  "transactionHash": "0xd7d565d9e09adaab6516e54106ce6b78d2ed1e645681a4e4b195c07c60bfce93",
  "args": [
    [
      {
        "heroIndex": 0,
        "hp": 500,
        "maxHp": 500,
        "attackDamage": 30,
        "name": "Mage",
        "imageURI": "hhettppf"
      },
      {
        "heroIndex": 1,
        "hp": 1500,
        "maxHp": 1500,
        "attackDamage": 25,
        "name": "Healer",
        "imageURI": "hhettppf"
      },
      {
        "heroIndex": 2,
        "hp": 1000,
        "maxHp": 1000,
        "attackDamage": 50,
        "name": "Barbarian",
        "imageURI": "hhettppf"
      }
    ],
    {
      "hp": 10000,
      "maxHp": 10000,
      "attackDamage": 150,
      "name": "The Boss"
    }
  ],
  "numDeployments": 2,
  "solcInputHash": "c2cf3474fc2e919aa21c912d3af39105",
  "bytecode": "0x60806040523480156200001157600080fd5b5060405162003195380380620031958339810160408190526200003491620006b8565b60408051808201825260068152654865726f657360d01b60208083019182528351808501909452600384526248524760e81b9084015281519192916200007d916000916200046b565b508051620000939060019060208401906200046b565b50505060005b8251811015620002db57620000de6040805160c08101909152806000815260200160008152602001600081526020016000815260200160608152602001606081525090565b838281518110620000f357620000f362000844565b60200260200101516080015181608001819052508382815181106200011c576200011c62000844565b60200260200101516020015181602001818152505083828151811062000146576200014662000844565b60200260200101516020015181604001818152505083828151811062000170576200017062000844565b6020026020010151606001518160600181815250508382815181106200019a576200019a62000844565b602002602001015160a001518160a00181905250816002811115620001c357620001c36200085a565b81906002811115620001d957620001d96200085a565b90816002811115620001ef57620001ef6200085a565b90525080600a60008460028111156200020c576200020c6200085a565b60028111156200022057620002206200085a565b60028111156200023457620002346200085a565b8152602081019190915260400160002081518154829060ff191660018360028111156200026557620002656200085a565b02179055506020828101516001830155604083015160028301556060830151600383015560808301518051620002a292600485019201906200046b565b5060a08201518051620002c09160058401916020909101906200046b565b50905050508080620002d29062000870565b91505062000099565b50604080516080810182528251808252602080850151818401819052858501519484018590526060808701519085018190526006938455600791909155600894909455835192939192620003349260099201906200046b565b50506040805180820190915260048152634d61676560e01b602080830191825260008052600d905290516200038d92507f81955a0a11e65eac625c29e8882660bae4e165a75d72780094acae8ece9a29ee91906200046b565b506040805180820190915260068152652432b0b632b960d11b60208083019182526001600052600d90529051620003e6917ffd54ff1ed53f34a900b24c5ba64f85761163b5d82d98a47b9bd80e45466993c5916200046b565b506040805180820190915260098152682130b93130b934b0b760b91b60208083019182526002600052600d9052905162000442917f10a81eed9d63d16face5e76357905348e6253d3394086026bb2bf2145d7cc249916200046b565b506200045a600e6200046260201b6200143d1760201c565b5050620008d7565b80546001019055565b82805462000479906200089a565b90600052602060002090601f0160209004810192826200049d5760008555620004e8565b82601f10620004b857805160ff1916838001178555620004e8565b82800160010185558215620004e8579182015b82811115620004e8578251825591602001919060010190620004cb565b50620004f6929150620004fa565b5090565b5b80821115620004f65760008155600101620004fb565b634e487b7160e01b600052604160045260246000fd5b60405160c081016001600160401b03811182821017156200054c576200054c62000511565b60405290565b604051601f8201601f191681016001600160401b03811182821017156200057d576200057d62000511565b604052919050565b8051600381106200059557600080fd5b919050565b600082601f830112620005ac57600080fd5b81516001600160401b03811115620005c857620005c862000511565b6020620005de601f8301601f1916820162000552565b8281528582848701011115620005f357600080fd5b60005b8381101562000613578581018301518282018401528201620005f6565b83811115620006255760008385840101525b5095945050505050565b6000608082840312156200064257600080fd5b604051608081016001600160401b03808211838310171562000668576200066862000511565b8160405282935084518352602085015160208401526040850151604084015260608501519150808211156200069c57600080fd5b50620006ab858286016200059a565b6060830152505092915050565b60008060408385031215620006cc57600080fd5b82516001600160401b0380821115620006e457600080fd5b818501915085601f830112620006f957600080fd5b815160208282111562000710576200071062000511565b8160051b6200072182820162000552565b928352848101820192828101908a8511156200073c57600080fd5b83870192505b8483101562000810578251868111156200075b57600080fd5b870160c0818d03601f190112156200077257600080fd5b6200077c62000527565b6200078986830162000585565b8152604082015186820152606082015160408201526080820151606082015260a08083015189811115620007bd5760008081fd5b620007cd8f89838701016200059a565b60808401525060c083015189811115620007e75760008081fd5b620007f78f89838701016200059a565b9183019190915250835250918301919083019062000742565b92890151929750919450505050808211156200082b57600080fd5b506200083a858286016200062f565b9150509250929050565b634e487b7160e01b600052603260045260246000fd5b634e487b7160e01b600052602160045260246000fd5b60006000198214156200089357634e487b7160e01b600052601160045260246000fd5b5060010190565b600181811c90821680620008af57607f821691505b60208210811415620008d157634e487b7160e01b600052602260045260246000fd5b50919050565b6128ae80620008e76000396000f3fe60806040526004361061015f5760003560e01c8063748a36aa116100c0578063a22cb46511610074578063c772af3911610059578063c772af39146103bd578063c87b56dd146103e2578063e985e9c51461040257600080fd5b8063a22cb4651461037d578063b88d4fde1461039d57600080fd5b80637df124a1116100a55780637df124a11461031b57806384468bb71461034857806395d89b411461036857600080fd5b8063748a36aa146102e857806379839309146102fb57600080fd5b806323b872dd1161011757806342842e0e116100fc57806342842e0e1461027a5780636352211e1461029a57806370a08231146102ba57600080fd5b806323b872dd146102285780632c7c03541461024857600080fd5b806306fdde031161014857806306fdde03146101ae578063081812fc146101d0578063095ea7b31461020857600080fd5b806301ffc9a7146101645780630619f93214610199575b600080fd5b34801561017057600080fd5b5061018461017f366004611fc5565b61044b565b60405190151581526020015b60405180910390f35b6101ac6101a7366004611fe9565b610530565b005b3480156101ba57600080fd5b506101c36106e2565b604051610190919061205a565b3480156101dc57600080fd5b506101f06101eb366004611fe9565b610774565b6040516001600160a01b039091168152602001610190565b34801561021457600080fd5b506101ac610223366004612089565b61079b565b34801561023457600080fd5b506101ac6102433660046120b3565b6108cd565b34801561025457600080fd5b50610268610263366004611fe9565b610954565b60405161019096959493929190612105565b34801561028657600080fd5b506101ac6102953660046120b3565b610a9f565b3480156102a657600080fd5b506101f06102b5366004611fe9565b610aba565b3480156102c657600080fd5b506102da6102d536600461216d565b610b1f565b604051908152602001610190565b6101ac6102f6366004612243565b610bb9565b34801561030757600080fd5b506101c36103163660046122b7565b610f16565b34801561032757600080fd5b506102da61033636600461216d565b600b6020526000908152604090205481565b34801561035457600080fd5b506102686103633660046122b7565b610fb0565b34801561037457600080fd5b506101c3610fea565b34801561038957600080fd5b506101ac6103983660046122d2565b610ff9565b3480156103a957600080fd5b506101ac6103b836600461230e565b611008565b3480156103c957600080fd5b506103d2611096565b604051610190949392919061238a565b3480156103ee57600080fd5b506101c36103fd366004611fe9565b611137565b34801561040e57600080fd5b5061018461041d3660046123b9565b6001600160a01b03918216600090815260056020908152604080832093909416825291909152205460ff1690565b60007fffffffff0000000000000000000000000000000000000000000000000000000082167f80ac58cd0000000000000000000000000000000000000000000000000000000014806104de57507fffffffff0000000000000000000000000000000000000000000000000000000082167f5b5e139f00000000000000000000000000000000000000000000000000000000145b8061052a57507f01ffc9a7000000000000000000000000000000000000000000000000000000007fffffffff000000000000000000000000000000000000000000000000000000008316145b92915050565b6006546105845760405162461bcd60e51b815260206004820152601860248201527f5468652047616d6520426f73732069732064656164212121000000000000000060448201526064015b60405180910390fd5b336000908152600b602052604090205481146105e25760405162461bcd60e51b815260206004820152601860248201527f4e6f20706f7373657373696f6e206f6620746865204e46540000000000000000604482015260640161057b565b6000818152600c6020526040902060018101546106415760405162461bcd60e51b815260206004820152600a60248201527f4865726f65206469656400000000000000000000000000000000000000000000604482015260640161057b565b6003810154600654106106655760038101546006546106609190612402565b610668565b60005b60065560085460018201541061068f57600854600182015461068a9190612402565b610692565b60005b600182018190556006546040805185815260208101929092528101919091527fe12e15c40a1b1348b02f6664523d9cd57660fcd277a6acd877837b403537f9a49060600160405180910390a15050565b6060600080546106f190612419565b80601f016020809104026020016040519081016040528092919081815260200182805461071d90612419565b801561076a5780601f1061073f5761010080835404028352916020019161076a565b820191906000526020600020905b81548152906001019060200180831161074d57829003601f168201915b5050505050905090565b600061077f82611446565b506000908152600460205260409020546001600160a01b031690565b60006107a682610aba565b9050806001600160a01b0316836001600160a01b031614156108305760405162461bcd60e51b815260206004820152602160248201527f4552433732313a20617070726f76616c20746f2063757272656e74206f776e6560448201527f7200000000000000000000000000000000000000000000000000000000000000606482015260840161057b565b336001600160a01b038216148061084c575061084c813361041d565b6108be5760405162461bcd60e51b815260206004820152603e60248201527f4552433732313a20617070726f76652063616c6c6572206973206e6f7420746f60448201527f6b656e206f776e6572206e6f7220617070726f76656420666f7220616c6c0000606482015260840161057b565b6108c883836114ad565b505050565b6108d73382611528565b6109495760405162461bcd60e51b815260206004820152602e60248201527f4552433732313a2063616c6c6572206973206e6f7420746f6b656e206f776e6560448201527f72206e6f7220617070726f766564000000000000000000000000000000000000606482015260840161057b565b6108c88383836115a7565b600c602052600090815260409020805460018201546002830154600384015460048501805460ff9095169593949293919261098e90612419565b80601f01602080910402602001604051908101604052809291908181526020018280546109ba90612419565b8015610a075780601f106109dc57610100808354040283529160200191610a07565b820191906000526020600020905b8154815290600101906020018083116109ea57829003601f168201915b505050505090806005018054610a1c90612419565b80601f0160208091040260200160405190810160405280929190818152602001828054610a4890612419565b8015610a955780601f10610a6a57610100808354040283529160200191610a95565b820191906000526020600020905b815481529060010190602001808311610a7857829003601f168201915b5050505050905086565b6108c883838360405180602001604052806000815250611008565b6000818152600260205260408120546001600160a01b03168061052a5760405162461bcd60e51b815260206004820152601860248201527f4552433732313a20696e76616c696420746f6b656e2049440000000000000000604482015260640161057b565b60006001600160a01b038216610b9d5760405162461bcd60e51b815260206004820152602960248201527f4552433732313a2061646472657373207a65726f206973206e6f74206120766160448201527f6c6964206f776e65720000000000000000000000000000000000000000000000606482015260840161057b565b506001600160a01b031660009081526003602052604090205490565b660aa87bee538000341015610c105760405162461bcd60e51b815260206004820152601160248201527f4e6f7420656e6f75676820616d6f756e74000000000000000000000000000000604482015260640161057b565b6000610c1b600e5490565b9050610c273382611781565b6000600a6000866002811115610c3f57610c3f6120ef565b6002811115610c5057610c506120ef565b815260208101919091526040908101600020815160c081019092528054829060ff166002811115610c8357610c836120ef565b6002811115610c9457610c946120ef565b8152602001600182015481526020016002820154815260200160038201548152602001600482018054610cc690612419565b80601f0160208091040260200160405190810160405280929190818152602001828054610cf290612419565b8015610d3f5780601f10610d1457610100808354040283529160200191610d3f565b820191906000526020600020905b815481529060010190602001808311610d2257829003601f168201915b50505050508152602001600582018054610d5890612419565b80601f0160208091040260200160405190810160405280929190818152602001828054610d8490612419565b8015610dd15780601f10610da657610100808354040283529160200191610dd1565b820191906000526020600020905b815481529060010190602001808311610db457829003601f168201915b505050505081525050905060006040518060c00160405280876002811115610dfb57610dfb6120ef565b81526020848101518183015260408086015181840152606080870151908401526080830189905260a0909201879052336000908152600b8252828120879055868152600c90915220815181549293508392829060ff19166001836002811115610e6657610e666120ef565b02179055506020828101516001830155604083015160028301556060830151600383015560808301518051610ea19260048501920190611efe565b5060a08201518051610ebd916005840191602090910190611efe565b509050507f29923e4cac10d420506a516391ac372ad95b391abd89dc050925d1e0b87b6b4733826080015185604051610ef893929190612454565b60405180910390a1610f0e600e80546001019055565b505050505050565b600d6020526000908152604090208054610f2f90612419565b80601f0160208091040260200160405190810160405280929190818152602001828054610f5b90612419565b8015610fa85780601f10610f7d57610100808354040283529160200191610fa8565b820191906000526020600020905b815481529060010190602001808311610f8b57829003601f168201915b505050505081565b600a602052600090815260409020805460018201546002830154600384015460048501805460ff9095169593949293919261098e90612419565b6060600180546106f190612419565b61100433838361179b565b5050565b6110123383611528565b6110845760405162461bcd60e51b815260206004820152602e60248201527f4552433732313a2063616c6c6572206973206e6f7420746f6b656e206f776e6560448201527f72206e6f7220617070726f766564000000000000000000000000000000000000606482015260840161057b565b6110908484848461186a565b50505050565b6006805460075460085460098054939492939192916110b490612419565b80601f01602080910402602001604051908101604052809291908181526020018280546110e090612419565b801561112d5780601f106111025761010080835404028352916020019161112d565b820191906000526020600020905b81548152906001019060200180831161111057829003601f168201915b5050505050905084565b6000818152600c6020526040808220815160c081019092528054606093929190829060ff16600281111561116d5761116d6120ef565b600281111561117e5761117e6120ef565b81526020016001820154815260200160028201548152602001600382015481526020016004820180546111b090612419565b80601f01602080910402602001604051908101604052809291908181526020018280546111dc90612419565b80156112295780601f106111fe57610100808354040283529160200191611229565b820191906000526020600020905b81548152906001019060200180831161120c57829003601f168201915b5050505050815260200160058201805461124290612419565b80601f016020809104026020016040519081016040528092919081815260200182805461126e90612419565b80156112bb5780601f10611290576101008083540402835291602001916112bb565b820191906000526020600020905b81548152906001019060200180831161129e57829003601f168201915b505050505081525050905060006112d582602001516118f3565b905060006112e683604001516118f3565b905060006112f784606001516118f3565b90506000600d600086600001516002811115611315576113156120ef565b6002811115611326576113266120ef565b8152602001908152602001600020805461133f90612419565b80601f016020809104026020016040519081016040528092919081815260200182805461136b90612419565b80156113b85780601f1061138d576101008083540402835291602001916113b8565b820191906000526020600020905b81548152906001019060200180831161139b57829003601f168201915b5050505050905060008560a001519050600061140a87608001516113db8b6118f3565b84868a8a8a6040516020016113f697969594939291906124a2565b604051602081830303815290604052611a25565b905060008160405160200161141f91906126fe565b60408051601f198184030181529190529a9950505050505050505050565b80546001019055565b6000818152600260205260409020546001600160a01b03166114aa5760405162461bcd60e51b815260206004820152601860248201527f4552433732313a20696e76616c696420746f6b656e2049440000000000000000604482015260640161057b565b50565b6000818152600460205260409020805473ffffffffffffffffffffffffffffffffffffffff19166001600160a01b03841690811790915581906114ef82610aba565b6001600160a01b03167f8c5be1e5ebec7d5bd14f71427d1e84f3dd0314c0f7b2291e5b200ac8c7c3b92560405160405180910390a45050565b60008061153483610aba565b9050806001600160a01b0316846001600160a01b0316148061157b57506001600160a01b0380821660009081526005602090815260408083209388168352929052205460ff165b8061159f5750836001600160a01b031661159484610774565b6001600160a01b0316145b949350505050565b826001600160a01b03166115ba82610aba565b6001600160a01b0316146116365760405162461bcd60e51b815260206004820152602560248201527f4552433732313a207472616e736665722066726f6d20696e636f72726563742060448201527f6f776e6572000000000000000000000000000000000000000000000000000000606482015260840161057b565b6001600160a01b0382166116b15760405162461bcd60e51b8152602060048201526024808201527f4552433732313a207472616e7366657220746f20746865207a65726f2061646460448201527f7265737300000000000000000000000000000000000000000000000000000000606482015260840161057b565b6116bc6000826114ad565b6001600160a01b03831660009081526003602052604081208054600192906116e5908490612402565b90915550506001600160a01b0382166000908152600360205260408120805460019290611713908490612743565b9091555050600081815260026020526040808220805473ffffffffffffffffffffffffffffffffffffffff19166001600160a01b0386811691821790925591518493918716917fddf252ad1be2c89b69c2b068fc378daa952ba7f163c4a11628f55a4df523b3ef91a4505050565b611004828260405180602001604052806000815250611b79565b816001600160a01b0316836001600160a01b031614156117fd5760405162461bcd60e51b815260206004820152601960248201527f4552433732313a20617070726f766520746f2063616c6c657200000000000000604482015260640161057b565b6001600160a01b03838116600081815260056020908152604080832094871680845294825291829020805460ff191686151590811790915591519182527f17307eab39ab6107e8899845ad3d59bd9653f200f220920489ca2b5937696c31910160405180910390a3505050565b6118758484846115a7565b61188184848484611c02565b6110905760405162461bcd60e51b815260206004820152603260248201527f4552433732313a207472616e7366657220746f206e6f6e20455243373231526560448201527f63656976657220696d706c656d656e7465720000000000000000000000000000606482015260840161057b565b60608161193357505060408051808201909152600181527f3000000000000000000000000000000000000000000000000000000000000000602082015290565b8160005b811561195d57806119478161275b565b91506119569050600a8361278c565b9150611937565b60008167ffffffffffffffff81111561197857611978612197565b6040519080825280601f01601f1916602001820160405280156119a2576020820181803683370190505b5090505b841561159f576119b7600183612402565b91506119c4600a866127a0565b6119cf906030612743565b60f81b8183815181106119e4576119e46127b4565b60200101907effffffffffffffffffffffffffffffffffffffffffffffffffffffffffffff1916908160001a905350611a1e600a8661278c565b94506119a6565b6060815160001415611a4557505060408051602081019091526000815290565b60006040518060600160405280604081526020016128396040913990506000600384516002611a749190612743565b611a7e919061278c565b611a899060046127ca565b67ffffffffffffffff811115611aa157611aa1612197565b6040519080825280601f01601f191660200182016040528015611acb576020820181803683370190505b509050600182016020820185865187015b80821015611b37576003820191508151603f8160121c168501518453600184019350603f81600c1c168501518453600184019350603f8160061c168501518453600184019350603f8116850151845350600183019250611adc565b5050600386510660018114611b535760028114611b6657611b6e565b603d6001830353603d6002830353611b6e565b603d60018303535b509195945050505050565b611b838383611daf565b611b906000848484611c02565b6108c85760405162461bcd60e51b815260206004820152603260248201527f4552433732313a207472616e7366657220746f206e6f6e20455243373231526560448201527f63656976657220696d706c656d656e7465720000000000000000000000000000606482015260840161057b565b60006001600160a01b0384163b15611da4576040517f150b7a020000000000000000000000000000000000000000000000000000000081526001600160a01b0385169063150b7a0290611c5f9033908990889088906004016127e9565b602060405180830381600087803b158015611c7957600080fd5b505af1925050508015611ca9575060408051601f3d908101601f19168201909252611ca69181019061281b565b60015b611d59573d808015611cd7576040519150601f19603f3d011682016040523d82523d6000602084013e611cdc565b606091505b508051611d515760405162461bcd60e51b815260206004820152603260248201527f4552433732313a207472616e7366657220746f206e6f6e20455243373231526560448201527f63656976657220696d706c656d656e7465720000000000000000000000000000606482015260840161057b565b805181602001fd5b7fffffffff00000000000000000000000000000000000000000000000000000000167f150b7a020000000000000000000000000000000000000000000000000000000014905061159f565b506001949350505050565b6001600160a01b038216611e055760405162461bcd60e51b815260206004820181905260248201527f4552433732313a206d696e7420746f20746865207a65726f2061646472657373604482015260640161057b565b6000818152600260205260409020546001600160a01b031615611e6a5760405162461bcd60e51b815260206004820152601c60248201527f4552433732313a20746f6b656e20616c7265616479206d696e74656400000000604482015260640161057b565b6001600160a01b0382166000908152600360205260408120805460019290611e93908490612743565b9091555050600081815260026020526040808220805473ffffffffffffffffffffffffffffffffffffffff19166001600160a01b03861690811790915590518392907fddf252ad1be2c89b69c2b068fc378daa952ba7f163c4a11628f55a4df523b3ef908290a45050565b828054611f0a90612419565b90600052602060002090601f016020900481019282611f2c5760008555611f72565b82601f10611f4557805160ff1916838001178555611f72565b82800160010185558215611f72579182015b82811115611f72578251825591602001919060010190611f57565b50611f7e929150611f82565b5090565b5b80821115611f7e5760008155600101611f83565b7fffffffff00000000000000000000000000000000000000000000000000000000811681146114aa57600080fd5b600060208284031215611fd757600080fd5b8135611fe281611f97565b9392505050565b600060208284031215611ffb57600080fd5b5035919050565b60005b8381101561201d578181015183820152602001612005565b838111156110905750506000910152565b60008151808452612046816020860160208601612002565b601f01601f19169290920160200192915050565b602081526000611fe2602083018461202e565b80356001600160a01b038116811461208457600080fd5b919050565b6000806040838503121561209c57600080fd5b6120a58361206d565b946020939093013593505050565b6000806000606084860312156120c857600080fd5b6120d18461206d565b92506120df6020850161206d565b9150604084013590509250925092565b634e487b7160e01b600052602160045260246000fd5b60006003881061212557634e487b7160e01b600052602160045260246000fd5b87825286602083015285604083015284606083015260c0608083015261214e60c083018561202e565b82810360a0840152612160818561202e565b9998505050505050505050565b60006020828403121561217f57600080fd5b611fe28261206d565b80356003811061208457600080fd5b634e487b7160e01b600052604160045260246000fd5b600067ffffffffffffffff808411156121c8576121c8612197565b604051601f8501601f19908116603f011681019082821181831017156121f0576121f0612197565b8160405280935085815286868601111561220957600080fd5b858560208301376000602087830101525050509392505050565b600082601f83011261223457600080fd5b611fe2838335602085016121ad565b60008060006060848603121561225857600080fd5b61226184612188565b9250602084013567ffffffffffffffff8082111561227e57600080fd5b61228a87838801612223565b935060408601359150808211156122a057600080fd5b506122ad86828701612223565b9150509250925092565b6000602082840312156122c957600080fd5b611fe282612188565b600080604083850312156122e557600080fd5b6122ee8361206d565b91506020830135801515811461230357600080fd5b809150509250929050565b6000806000806080858703121561232457600080fd5b61232d8561206d565b935061233b6020860161206d565b925060408501359150606085013567ffffffffffffffff81111561235e57600080fd5b8501601f8101871361236f57600080fd5b61237e878235602084016121ad565b91505092959194509250565b8481528360208201528260408201526080606082015260006123af608083018461202e565b9695505050505050565b600080604083850312156123cc57600080fd5b6123d58361206d565b91506123e36020840161206d565b90509250929050565b634e487b7160e01b600052601160045260246000fd5b600082821015612414576124146123ec565b500390565b600181811c9082168061242d57607f821691505b6020821081141561244e57634e487b7160e01b600052602260045260246000fd5b50919050565b6001600160a01b0384168152606060208201526000612476606083018561202e565b9050826040830152949350505050565b60008151612498818560208601612002565b9290920192915050565b7f7b226e616d65223a2022000000000000000000000000000000000000000000008152600088516124da81600a850160208d01612002565b7f222c20224e465423223a20220000000000000000000000000000000000000000600a918401918201528851612517816016840160208d01612002565b7f222c20226465736372697074696f6e223a20224772616e6465204a6f676f2066601692909101918201527f69727374204e46542067616d6520746861742069732066756e222c2022696d6160368201527f6765223a20220000000000000000000000000000000000000000000000000000605682015287516125a181605c840160208c01612002565b7f222c2022436c61737322203a2022000000000000000000000000000000000000605c92909101918201526126f06126c76126c161267261266c61264361263d6125ee606a89018f612486565b7f222c202261747472696275746573223a205b207b202274726169745f7479706581527f223a20224865616c746820506f696e7473222c202276616c7565223a200000006020820152603d0190565b8c612486565b7f2c20226d61785f76616c7565223a0000000000000000000000000000000000008152600e0190565b89612486565b7f7d2c207b202274726169745f74797065223a202241747461636b2044616d616781527f65222c202276616c7565223a20000000000000000000000000000000000000006020820152602d0190565b86612486565b7f7d205d7d00000000000000000000000000000000000000000000000000000000815260040190565b9a9950505050505050505050565b7f646174613a6170706c69636174696f6e2f6a736f6e3b6261736536342c00000081526000825161273681601d850160208701612002565b91909101601d0192915050565b60008219821115612756576127566123ec565b500190565b600060001982141561276f5761276f6123ec565b5060010190565b634e487b7160e01b600052601260045260246000fd5b60008261279b5761279b612776565b500490565b6000826127af576127af612776565b500690565b634e487b7160e01b600052603260045260246000fd5b60008160001904831182151516156127e4576127e46123ec565b500290565b60006001600160a01b038087168352808616602084015250836040830152608060608301526123af608083018461202e565b60006020828403121561282d57600080fd5b8151611fe281611f9756fe4142434445464748494a4b4c4d4e4f505152535455565758595a6162636465666768696a6b6c6d6e6f707172737475767778797a303132333435363738392b2fa2646970667358221220f9dfe2f7eab66d8083cf9c0a93a31466b8708dd96ece0cbeb390c478a35815b864736f6c63430008090033",
  "devdoc": {
    "kind": "dev",
    "methods": {
      "approve(address,uint256)": {
        "details": "See {IERC721-approve}."
      },
      "balanceOf(address)": {
        "details": "See {IERC721-balanceOf}."
      },
      "getApproved(uint256)": {
        "details": "See {IERC721-getApproved}."
      },
      "isApprovedForAll(address,address)": {
        "details": "See {IERC721-isApprovedForAll}."
      },
      "name()": {
        "details": "See {IERC721Metadata-name}."
      },
      "ownerOf(uint256)": {
        "details": "See {IERC721-ownerOf}."
      },
      "safeTransferFrom(address,address,uint256)": {
        "details": "See {IERC721-safeTransferFrom}."
      },
      "safeTransferFrom(address,address,uint256,bytes)": {
        "details": "See {IERC721-safeTransferFrom}."
      },
      "setApprovalForAll(address,bool)": {
        "details": "See {IERC721-setApprovalForAll}."
      },
      "supportsInterface(bytes4)": {
        "details": "See {IERC165-supportsInterface}."
      },
      "symbol()": {
        "details": "See {IERC721Metadata-symbol}."
      },
      "transferFrom(address,address,uint256)": {
        "details": "See {IERC721-transferFrom}."
      }
    },
    "version": 1
  },
  "userdoc": {
    "kind": "user",
    "methods": {},
    "version": 1
  },
  "storageLayout": {
    "storage": [
      {
        "astId": 25,
        "contract": "src/EpicGame/EpicGame.sol:EpicGame",
        "label": "_name",
        "offset": 0,
        "slot": "0",
        "type": "t_string_storage"
      },
      {
        "astId": 27,
        "contract": "src/EpicGame/EpicGame.sol:EpicGame",
        "label": "_symbol",
        "offset": 0,
        "slot": "1",
        "type": "t_string_storage"
      },
      {
        "astId": 31,
        "contract": "src/EpicGame/EpicGame.sol:EpicGame",
        "label": "_owners",
        "offset": 0,
        "slot": "2",
        "type": "t_mapping(t_uint256,t_address)"
      },
      {
        "astId": 35,
        "contract": "src/EpicGame/EpicGame.sol:EpicGame",
        "label": "_balances",
        "offset": 0,
        "slot": "3",
        "type": "t_mapping(t_address,t_uint256)"
      },
      {
        "astId": 39,
        "contract": "src/EpicGame/EpicGame.sol:EpicGame",
        "label": "_tokenApprovals",
        "offset": 0,
        "slot": "4",
        "type": "t_mapping(t_uint256,t_address)"
      },
      {
        "astId": 45,
        "contract": "src/EpicGame/EpicGame.sol:EpicGame",
        "label": "_operatorApprovals",
        "offset": 0,
        "slot": "5",
        "type": "t_mapping(t_address,t_mapping(t_address,t_bool))"
      },
      {
        "astId": 9830,
        "contract": "src/EpicGame/EpicGame.sol:EpicGame",
        "label": "boss",
        "offset": 0,
        "slot": "6",
        "type": "t_struct(Boss)9827_storage"
      },
      {
        "astId": 9840,
        "contract": "src/EpicGame/EpicGame.sol:EpicGame",
        "label": "baseHeroes",
        "offset": 0,
        "slot": "10",
        "type": "t_mapping(t_enum(Class)9804,t_struct(Hero)9818_storage)"
      },
      {
        "astId": 9844,
        "contract": "src/EpicGame/EpicGame.sol:EpicGame",
        "label": "nftHolders",
        "offset": 0,
        "slot": "11",
        "type": "t_mapping(t_address,t_uint256)"
      },
      {
        "astId": 9849,
        "contract": "src/EpicGame/EpicGame.sol:EpicGame",
        "label": "heroesHolderAttr",
        "offset": 0,
        "slot": "12",
        "type": "t_mapping(t_uint256,t_struct(Hero)9818_storage)"
      },
      {
        "astId": 9854,
        "contract": "src/EpicGame/EpicGame.sol:EpicGame",
        "label": "classes",
        "offset": 0,
        "slot": "13",
        "type": "t_mapping(t_enum(Class)9804,t_string_storage)"
      },
      {
        "astId": 9857,
        "contract": "src/EpicGame/EpicGame.sol:EpicGame",
        "label": "_tokenIds",
        "offset": 0,
        "slot": "14",
        "type": "t_struct(Counter)1397_storage"
      }
    ],
    "types": {
      "t_address": {
        "encoding": "inplace",
        "label": "address",
        "numberOfBytes": "20"
      },
      "t_bool": {
        "encoding": "inplace",
        "label": "bool",
        "numberOfBytes": "1"
      },
      "t_enum(Class)9804": {
        "encoding": "inplace",
        "label": "enum EpicGame.Class",
        "numberOfBytes": "1"
      },
      "t_mapping(t_address,t_bool)": {
        "encoding": "mapping",
        "key": "t_address",
        "label": "mapping(address => bool)",
        "numberOfBytes": "32",
        "value": "t_bool"
      },
      "t_mapping(t_address,t_mapping(t_address,t_bool))": {
        "encoding": "mapping",
        "key": "t_address",
        "label": "mapping(address => mapping(address => bool))",
        "numberOfBytes": "32",
        "value": "t_mapping(t_address,t_bool)"
      },
      "t_mapping(t_address,t_uint256)": {
        "encoding": "mapping",
        "key": "t_address",
        "label": "mapping(address => uint256)",
        "numberOfBytes": "32",
        "value": "t_uint256"
      },
      "t_mapping(t_enum(Class)9804,t_string_storage)": {
        "encoding": "mapping",
        "key": "t_enum(Class)9804",
        "label": "mapping(enum EpicGame.Class => string)",
        "numberOfBytes": "32",
        "value": "t_string_storage"
      },
      "t_mapping(t_enum(Class)9804,t_struct(Hero)9818_storage)": {
        "encoding": "mapping",
        "key": "t_enum(Class)9804",
        "label": "mapping(enum EpicGame.Class => struct EpicGame.Hero)",
        "numberOfBytes": "32",
        "value": "t_struct(Hero)9818_storage"
      },
      "t_mapping(t_uint256,t_address)": {
        "encoding": "mapping",
        "key": "t_uint256",
        "label": "mapping(uint256 => address)",
        "numberOfBytes": "32",
        "value": "t_address"
      },
      "t_mapping(t_uint256,t_struct(Hero)9818_storage)": {
        "encoding": "mapping",
        "key": "t_uint256",
        "label": "mapping(uint256 => struct EpicGame.Hero)",
        "numberOfBytes": "32",
        "value": "t_struct(Hero)9818_storage"
      },
      "t_string_storage": {
        "encoding": "bytes",
        "label": "string",
        "numberOfBytes": "32"
      },
      "t_struct(Boss)9827_storage": {
        "encoding": "inplace",
        "label": "struct EpicGame.Boss",
        "members": [
          {
            "astId": 9820,
            "contract": "src/EpicGame/EpicGame.sol:EpicGame",
            "label": "hp",
            "offset": 0,
            "slot": "0",
            "type": "t_uint256"
          },
          {
            "astId": 9822,
            "contract": "src/EpicGame/EpicGame.sol:EpicGame",
            "label": "maxHp",
            "offset": 0,
            "slot": "1",
            "type": "t_uint256"
          },
          {
            "astId": 9824,
            "contract": "src/EpicGame/EpicGame.sol:EpicGame",
            "label": "attackDamage",
            "offset": 0,
            "slot": "2",
            "type": "t_uint256"
          },
          {
            "astId": 9826,
            "contract": "src/EpicGame/EpicGame.sol:EpicGame",
            "label": "name",
            "offset": 0,
            "slot": "3",
            "type": "t_string_storage"
          }
        ],
        "numberOfBytes": "128"
      },
      "t_struct(Counter)1397_storage": {
        "encoding": "inplace",
        "label": "struct Counters.Counter",
        "members": [
          {
            "astId": 1396,
            "contract": "src/EpicGame/EpicGame.sol:EpicGame",
            "label": "_value",
            "offset": 0,
            "slot": "0",
            "type": "t_uint256"
          }
        ],
        "numberOfBytes": "32"
      },
      "t_struct(Hero)9818_storage": {
        "encoding": "inplace",
        "label": "struct EpicGame.Hero",
        "members": [
          {
            "astId": 9807,
            "contract": "src/EpicGame/EpicGame.sol:EpicGame",
            "label": "heroIndex",
            "offset": 0,
            "slot": "0",
            "type": "t_enum(Class)9804"
          },
          {
            "astId": 9809,
            "contract": "src/EpicGame/EpicGame.sol:EpicGame",
            "label": "hp",
            "offset": 0,
            "slot": "1",
            "type": "t_uint256"
          },
          {
            "astId": 9811,
            "contract": "src/EpicGame/EpicGame.sol:EpicGame",
            "label": "maxHp",
            "offset": 0,
            "slot": "2",
            "type": "t_uint256"
          },
          {
            "astId": 9813,
            "contract": "src/EpicGame/EpicGame.sol:EpicGame",
            "label": "attackDamage",
            "offset": 0,
            "slot": "3",
            "type": "t_uint256"
          },
          {
            "astId": 9815,
            "contract": "src/EpicGame/EpicGame.sol:EpicGame",
            "label": "name",
            "offset": 0,
            "slot": "4",
            "type": "t_string_storage"
          },
          {
            "astId": 9817,
            "contract": "src/EpicGame/EpicGame.sol:EpicGame",
            "label": "imageURI",
            "offset": 0,
            "slot": "5",
            "type": "t_string_storage"
          }
        ],
        "numberOfBytes": "192"
      },
      "t_uint256": {
        "encoding": "inplace",
        "label": "uint256",
        "numberOfBytes": "32"
      }
    }
  }
}