{
  "address": "0x8Ee56Ce44140246392efc85a9B6A842ad6a98Fdb",
  "abi": [
    {
      "inputs": [
        {
          "components": [
            {
              "internalType": "enum EpicGame.Class",
              "name": "heroIndex",
              "type": "uint8"
            },
            {
              "internalType": "uint256",
              "name": "hp",
              "type": "uint256"
            },
            {
              "internalType": "uint256",
              "name": "maxHp",
              "type": "uint256"
            },
            {
              "internalType": "uint256",
              "name": "attackDamage",
              "type": "uint256"
            },
            {
              "internalType": "string",
              "name": "name",
              "type": "string"
            },
            {
              "internalType": "string",
              "name": "imageURI",
              "type": "string"
            }
          ],
          "internalType": "struct EpicGame.Hero[]",
          "name": "bases",
          "type": "tuple[]"
        },
        {
          "components": [
            {
              "internalType": "uint256",
              "name": "hp",
              "type": "uint256"
            },
            {
              "internalType": "uint256",
              "name": "maxHp",
              "type": "uint256"
            },
            {
              "internalType": "uint256",
              "name": "attackDamage",
              "type": "uint256"
            },
            {
              "internalType": "string",
              "name": "name",
              "type": "string"
            }
          ],
          "internalType": "struct EpicGame.Boss",
          "name": "bossAttr",
          "type": "tuple"
        }
      ],
      "stateMutability": "nonpayable",
      "type": "constructor"
    },
    {
      "inputs": [],
      "name": "ApprovalCallerNotOwnerNorApproved",
      "type": "error"
    },
    {
      "inputs": [],
      "name": "ApprovalQueryForNonexistentToken",
      "type": "error"
    },
    {
      "inputs": [],
      "name": "ApprovalToCurrentOwner",
      "type": "error"
    },
    {
      "inputs": [],
      "name": "ApproveToCaller",
      "type": "error"
    },
    {
      "inputs": [],
      "name": "BalanceQueryForZeroAddress",
      "type": "error"
    },
    {
      "inputs": [],
      "name": "MintToZeroAddress",
      "type": "error"
    },
    {
      "inputs": [],
      "name": "MintZeroQuantity",
      "type": "error"
    },
    {
      "inputs": [],
      "name": "OwnerQueryForNonexistentToken",
      "type": "error"
    },
    {
      "inputs": [],
      "name": "TransferCallerNotOwnerNorApproved",
      "type": "error"
    },
    {
      "inputs": [],
      "name": "TransferFromIncorrectOwner",
      "type": "error"
    },
    {
      "inputs": [],
      "name": "TransferToNonERC721ReceiverImplementer",
      "type": "error"
    },
    {
      "inputs": [],
      "name": "TransferToZeroAddress",
      "type": "error"
    },
    {
      "inputs": [],
      "name": "URIQueryForNonexistentToken",
      "type": "error"
    },
    {
      "anonymous": false,
      "inputs": [
        {
          "indexed": true,
          "internalType": "address",
          "name": "owner",
          "type": "address"
        },
        {
          "indexed": true,
          "internalType": "address",
          "name": "approved",
          "type": "address"
        },
        {
          "indexed": true,
          "internalType": "uint256",
          "name": "tokenId",
          "type": "uint256"
        }
      ],
      "name": "Approval",
      "type": "event"
    },
    {
      "anonymous": false,
      "inputs": [
        {
          "indexed": true,
          "internalType": "address",
          "name": "owner",
          "type": "address"
        },
        {
          "indexed": true,
          "internalType": "address",
          "name": "operator",
          "type": "address"
        },
        {
          "indexed": false,
          "internalType": "bool",
          "name": "approved",
          "type": "bool"
        }
      ],
      "name": "ApprovalForAll",
      "type": "event"
    },
    {
      "anonymous": false,
      "inputs": [
        {
          "indexed": false,
          "internalType": "address",
          "name": "from",
          "type": "address"
        },
        {
          "indexed": false,
          "internalType": "string",
          "name": "heroName",
          "type": "string"
        },
        {
          "indexed": false,
          "internalType": "uint256",
          "name": "nftNumber",
          "type": "uint256"
        }
      ],
      "name": "CreatedHero",
      "type": "event"
    },
    {
      "anonymous": false,
      "inputs": [
        {
          "indexed": false,
          "internalType": "uint256",
          "name": "tokenId",
          "type": "uint256"
        },
        {
          "indexed": false,
          "internalType": "uint256",
          "name": "bossHp",
          "type": "uint256"
        },
        {
          "indexed": false,
          "internalType": "uint256",
          "name": "heroeHp",
          "type": "uint256"
        }
      ],
      "name": "HitBoss",
      "type": "event"
    },
    {
      "anonymous": false,
      "inputs": [
        {
          "indexed": true,
          "internalType": "address",
          "name": "from",
          "type": "address"
        },
        {
          "indexed": true,
          "internalType": "address",
          "name": "to",
          "type": "address"
        },
        {
          "indexed": true,
          "internalType": "uint256",
          "name": "tokenId",
          "type": "uint256"
        }
      ],
      "name": "Transfer",
      "type": "event"
    },
    {
      "inputs": [
        {
          "internalType": "address",
          "name": "to",
          "type": "address"
        },
        {
          "internalType": "uint256",
          "name": "tokenId",
          "type": "uint256"
        }
      ],
      "name": "approve",
      "outputs": [],
      "stateMutability": "nonpayable",
      "type": "function"
    },
    {
      "inputs": [
        {
          "internalType": "uint256",
          "name": "_tokenId",
          "type": "uint256"
        }
      ],
      "name": "attackBoss",
      "outputs": [],
      "stateMutability": "payable",
      "type": "function"
    },
    {
      "inputs": [
        {
          "internalType": "address",
          "name": "owner",
          "type": "address"
        }
      ],
      "name": "balanceOf",
      "outputs": [
        {
          "internalType": "uint256",
          "name": "",
          "type": "uint256"
        }
      ],
      "stateMutability": "view",
      "type": "function"
    },
    {
      "inputs": [
        {
          "internalType": "enum EpicGame.Class",
          "name": "",
          "type": "uint8"
        }
      ],
      "name": "baseHeroes",
      "outputs": [
        {
          "internalType": "enum EpicGame.Class",
          "name": "heroIndex",
          "type": "uint8"
        },
        {
          "internalType": "uint256",
          "name": "hp",
          "type": "uint256"
        },
        {
          "internalType": "uint256",
          "name": "maxHp",
          "type": "uint256"
        },
        {
          "internalType": "uint256",
          "name": "attackDamage",
          "type": "uint256"
        },
        {
          "internalType": "string",
          "name": "name",
          "type": "string"
        },
        {
          "internalType": "string",
          "name": "imageURI",
          "type": "string"
        }
      ],
      "stateMutability": "view",
      "type": "function"
    },
    {
      "inputs": [],
      "name": "boss",
      "outputs": [
        {
          "internalType": "uint256",
          "name": "hp",
          "type": "uint256"
        },
        {
          "internalType": "uint256",
          "name": "maxHp",
          "type": "uint256"
        },
        {
          "internalType": "uint256",
          "name": "attackDamage",
          "type": "uint256"
        },
        {
          "internalType": "string",
          "name": "name",
          "type": "string"
        }
      ],
      "stateMutability": "view",
      "type": "function"
    },
    {
      "inputs": [
        {
          "internalType": "enum EpicGame.Class",
          "name": "",
          "type": "uint8"
        }
      ],
      "name": "classes",
      "outputs": [
        {
          "internalType": "string",
          "name": "",
          "type": "string"
        }
      ],
      "stateMutability": "view",
      "type": "function"
    },
    {
      "inputs": [
        {
          "internalType": "uint256",
          "name": "tokenId",
          "type": "uint256"
        }
      ],
      "name": "getApproved",
      "outputs": [
        {
          "internalType": "address",
          "name": "",
          "type": "address"
        }
      ],
      "stateMutability": "view",
      "type": "function"
    },
    {
      "inputs": [
        {
          "internalType": "uint256",
          "name": "",
          "type": "uint256"
        }
      ],
      "name": "heroesHolderAttr",
      "outputs": [
        {
          "internalType": "enum EpicGame.Class",
          "name": "heroIndex",
          "type": "uint8"
        },
        {
          "internalType": "uint256",
          "name": "hp",
          "type": "uint256"
        },
        {
          "internalType": "uint256",
          "name": "maxHp",
          "type": "uint256"
        },
        {
          "internalType": "uint256",
          "name": "attackDamage",
          "type": "uint256"
        },
        {
          "internalType": "string",
          "name": "name",
          "type": "string"
        },
        {
          "internalType": "string",
          "name": "imageURI",
          "type": "string"
        }
      ],
      "stateMutability": "view",
      "type": "function"
    },
    {
      "inputs": [
        {
          "internalType": "address",
          "name": "owner",
          "type": "address"
        },
        {
          "internalType": "address",
          "name": "operator",
          "type": "address"
        }
      ],
      "name": "isApprovedForAll",
      "outputs": [
        {
          "internalType": "bool",
          "name": "",
          "type": "bool"
        }
      ],
      "stateMutability": "view",
      "type": "function"
    },
    {
      "inputs": [
        {
          "internalType": "enum EpicGame.Class",
          "name": "choice",
          "type": "uint8"
        },
        {
          "internalType": "string",
          "name": "_name",
          "type": "string"
        },
        {
          "internalType": "string",
          "name": "_imageURI",
          "type": "string"
        }
      ],
      "name": "mintHero",
      "outputs": [],
      "stateMutability": "payable",
      "type": "function"
    },
    {
      "inputs": [],
      "name": "name",
      "outputs": [
        {
          "internalType": "string",
          "name": "",
          "type": "string"
        }
      ],
      "stateMutability": "view",
      "type": "function"
    },
    {
      "inputs": [
        {
          "internalType": "address",
          "name": "",
          "type": "address"
        }
      ],
      "name": "nftHolders",
      "outputs": [
        {
          "internalType": "uint256",
          "name": "",
          "type": "uint256"
        }
      ],
      "stateMutability": "view",
      "type": "function"
    },
    {
      "inputs": [
        {
          "internalType": "uint256",
          "name": "tokenId",
          "type": "uint256"
        }
      ],
      "name": "ownerOf",
      "outputs": [
        {
          "internalType": "address",
          "name": "",
          "type": "address"
        }
      ],
      "stateMutability": "view",
      "type": "function"
    },
    {
      "inputs": [
        {
          "internalType": "address",
          "name": "from",
          "type": "address"
        },
        {
          "internalType": "address",
          "name": "to",
          "type": "address"
        },
        {
          "internalType": "uint256",
          "name": "tokenId",
          "type": "uint256"
        }
      ],
      "name": "safeTransferFrom",
      "outputs": [],
      "stateMutability": "nonpayable",
      "type": "function"
    },
    {
      "inputs": [
        {
          "internalType": "address",
          "name": "from",
          "type": "address"
        },
        {
          "internalType": "address",
          "name": "to",
          "type": "address"
        },
        {
          "internalType": "uint256",
          "name": "tokenId",
          "type": "uint256"
        },
        {
          "internalType": "bytes",
          "name": "_data",
          "type": "bytes"
        }
      ],
      "name": "safeTransferFrom",
      "outputs": [],
      "stateMutability": "nonpayable",
      "type": "function"
    },
    {
      "inputs": [
        {
          "internalType": "address",
          "name": "operator",
          "type": "address"
        },
        {
          "internalType": "bool",
          "name": "approved",
          "type": "bool"
        }
      ],
      "name": "setApprovalForAll",
      "outputs": [],
      "stateMutability": "nonpayable",
      "type": "function"
    },
    {
      "inputs": [
        {
          "internalType": "bytes4",
          "name": "interfaceId",
          "type": "bytes4"
        }
      ],
      "name": "supportsInterface",
      "outputs": [
        {
          "internalType": "bool",
          "name": "",
          "type": "bool"
        }
      ],
      "stateMutability": "view",
      "type": "function"
    },
    {
      "inputs": [],
      "name": "symbol",
      "outputs": [
        {
          "internalType": "string",
          "name": "",
          "type": "string"
        }
      ],
      "stateMutability": "view",
      "type": "function"
    },
    {
      "inputs": [
        {
          "internalType": "uint256",
          "name": "_tokenId",
          "type": "uint256"
        }
      ],
      "name": "tokenURI",
      "outputs": [
        {
          "internalType": "string",
          "name": "",
          "type": "string"
        }
      ],
      "stateMutability": "view",
      "type": "function"
    },
    {
      "inputs": [],
      "name": "totalSupply",
      "outputs": [
        {
          "internalType": "uint256",
          "name": "",
          "type": "uint256"
        }
      ],
      "stateMutability": "view",
      "type": "function"
    },
    {
      "inputs": [
        {
          "internalType": "address",
          "name": "from",
          "type": "address"
        },
        {
          "internalType": "address",
          "name": "to",
          "type": "address"
        },
        {
          "internalType": "uint256",
          "name": "tokenId",
          "type": "uint256"
        }
      ],
      "name": "transferFrom",
      "outputs": [],
      "stateMutability": "nonpayable",
      "type": "function"
    }
  ],
  "transactionHash": "0x7127b0d781c9fe9808455365937ac6b78049b596217f123f35f69e66168fa91b",
  "args": [
    [
      {
        "heroIndex": 0,
        "hp": 500,
        "maxHp": 500,
        "attackDamage": 30,
        "name": "Mage",
        "imageURI": "hhettppf"
      },
      {
        "heroIndex": 1,
        "hp": 1500,
        "maxHp": 1500,
        "attackDamage": 25,
        "name": "Healer",
        "imageURI": "hhettppf"
      },
      {
        "heroIndex": 2,
        "hp": 1000,
        "maxHp": 1000,
        "attackDamage": 50,
        "name": "Barbarian",
        "imageURI": "hhettppf"
      }
    ],
    {
      "hp": 10000,
      "maxHp": 10000,
      "attackDamage": 150,
      "name": "The Boss"
    }
  ],
  "numDeployments": 1,
  "solcInputHash": "d448515464fe33bd50eafbfbccf642f8",
  "bytecode": "0x60806040523480156200001157600080fd5b5060405162002fb338038062002fb38339810160408190526200003491620006bc565b60408051808201825260068152654865726f657360d01b60208083019182528351808501909452600384526248524760e81b9084015281519192916200007d916002916200046f565b508051620000939060039060208401906200046f565b5060008081559150505b8251811015620002df57620000e26040805160c08101909152806000815260200160008152602001600081526020016000815260200160608152602001606081525090565b838281518110620000f757620000f762000848565b602002602001015160800151816080018190525083828151811062000120576200012062000848565b6020026020010151602001518160200181815250508382815181106200014a576200014a62000848565b60200260200101516020015181604001818152505083828151811062000174576200017462000848565b6020026020010151606001518160600181815250508382815181106200019e576200019e62000848565b602002602001015160a001518160a00181905250816002811115620001c757620001c76200085e565b81906002811115620001dd57620001dd6200085e565b90816002811115620001f357620001f36200085e565b90525080600c60008460028111156200021057620002106200085e565b60028111156200022457620002246200085e565b60028111156200023857620002386200085e565b8152602081019190915260400160002081518154829060ff191660018360028111156200026957620002696200085e565b02179055506020828101516001830155604083015160028301556060830151600383015560808301518051620002a692600485019201906200046f565b5060a08201518051620002c49160058401916020909101906200046f565b50905050508080620002d69062000874565b9150506200009d565b50604080516080810182528251808252602080850151818401819052858501519484018590526060808701519085018190526008938455600991909155600a949094558351929391926200033892600b9201906200046f565b50506040805180820190915260048152634d61676560e01b602080830191825260008052600f905290516200039192507ff4803e074bd026baaf6ed2e288c9515f68c72fb7216eebdd7cae1718a53ec37591906200046f565b506040805180820190915260068152652432b0b632b960d11b60208083019182526001600052600f90529051620003ea917f169f97de0d9a84d840042b17d3c6b9638b3d6fd9024c9eb0c7a306a17b49f88f916200046f565b506040805180820190915260098152682130b93130b934b0b760b91b60208083019182526002600052600f9052905162000446917fa74ba3945261e09fde15ba3db55005b205e61eeb4ad811ac0faa2b315bffeead916200046f565b506200045e60106200046660201b620013401760201c565b5050620008db565b80546001019055565b8280546200047d906200089e565b90600052602060002090601f016020900481019282620004a15760008555620004ec565b82601f10620004bc57805160ff1916838001178555620004ec565b82800160010185558215620004ec579182015b82811115620004ec578251825591602001919060010190620004cf565b50620004fa929150620004fe565b5090565b5b80821115620004fa5760008155600101620004ff565b634e487b7160e01b600052604160045260246000fd5b60405160c081016001600160401b038111828210171562000550576200055062000515565b60405290565b604051601f8201601f191681016001600160401b038111828210171562000581576200058162000515565b604052919050565b8051600381106200059957600080fd5b919050565b600082601f830112620005b057600080fd5b81516001600160401b03811115620005cc57620005cc62000515565b6020620005e2601f8301601f1916820162000556565b8281528582848701011115620005f757600080fd5b60005b8381101562000617578581018301518282018401528201620005fa565b83811115620006295760008385840101525b5095945050505050565b6000608082840312156200064657600080fd5b604051608081016001600160401b0380821183831017156200066c576200066c62000515565b816040528293508451835260208501516020840152604085015160408401526060850151915080821115620006a057600080fd5b50620006af858286016200059e565b6060830152505092915050565b60008060408385031215620006d057600080fd5b82516001600160401b0380821115620006e857600080fd5b818501915085601f830112620006fd57600080fd5b815160208282111562000714576200071462000515565b8160051b6200072582820162000556565b928352848101820192828101908a8511156200074057600080fd5b83870192505b8483101562000814578251868111156200075f57600080fd5b870160c0818d03601f190112156200077657600080fd5b620007806200052b565b6200078d86830162000589565b8152604082015186820152606082015160408201526080820151606082015260a08083015189811115620007c15760008081fd5b620007d18f89838701016200059e565b60808401525060c083015189811115620007eb5760008081fd5b620007fb8f89838701016200059e565b9183019190915250835250918301919083019062000746565b92890151929750919450505050808211156200082f57600080fd5b506200083e8582860162000633565b9150509250929050565b634e487b7160e01b600052603260045260246000fd5b634e487b7160e01b600052602160045260246000fd5b60006000198214156200089757634e487b7160e01b600052601160045260246000fd5b5060010190565b600181811c90821680620008b357607f821691505b60208210811415620008d557634e487b7160e01b600052602260045260246000fd5b50919050565b6126c880620008eb6000396000f3fe60806040526004361061016a5760003560e01c806370a08231116100cb57806395d89b411161007f578063c772af3911610059578063c772af39146103dd578063c87b56dd14610402578063e985e9c51461042257600080fd5b806395d89b4114610388578063a22cb4651461039d578063b88d4fde146103bd57600080fd5b806379839309116100b0578063798393091461031b5780637df124a11461033b57806384468bb71461036857600080fd5b806370a08231146102e8578063748a36aa1461030857600080fd5b806318160ddd116101225780632c7c0354116101075780632c7c03541461027657806342842e0e146102a85780636352211e146102c857600080fd5b806318160ddd1461023357806323b872dd1461025657600080fd5b806306fdde031161015357806306fdde03146101b9578063081812fc146101db578063095ea7b31461021357600080fd5b806301ffc9a71461016f5780630619f932146101a4575b600080fd5b34801561017b57600080fd5b5061018f61018a366004611ddf565b61046b565b60405190151581526020015b60405180910390f35b6101b76101b2366004611e03565b610508565b005b3480156101c557600080fd5b506101ce6106cd565b60405161019b9190611e74565b3480156101e757600080fd5b506101fb6101f6366004611e03565b61075f565b6040516001600160a01b03909116815260200161019b565b34801561021f57600080fd5b506101b761022e366004611ea3565b6107bc565b34801561023f57600080fd5b50600154600054035b60405190815260200161019b565b34801561026257600080fd5b506101b7610271366004611ecd565b610875565b34801561028257600080fd5b50610296610291366004611e03565b610880565b60405161019b96959493929190611f1f565b3480156102b457600080fd5b506101b76102c3366004611ecd565b6109cb565b3480156102d457600080fd5b506101fb6102e3366004611e03565b6109e6565b3480156102f457600080fd5b50610248610303366004611f87565b6109f8565b6101b761031636600461205d565b610a60565b34801561032757600080fd5b506101ce6103363660046120d1565b610dbd565b34801561034757600080fd5b50610248610356366004611f87565b600d6020526000908152604090205481565b34801561037457600080fd5b506102966103833660046120d1565b610e57565b34801561039457600080fd5b506101ce610e91565b3480156103a957600080fd5b506101b76103b83660046120ec565b610ea0565b3480156103c957600080fd5b506101b76103d8366004612128565b610f4f565b3480156103e957600080fd5b506103f2610f99565b60405161019b94939291906121a4565b34801561040e57600080fd5b506101ce61041d366004611e03565b61103a565b34801561042e57600080fd5b5061018f61043d3660046121d3565b6001600160a01b03918216600090815260076020908152604080832093909416825291909152205460ff1690565b60006001600160e01b031982167f80ac58cd0000000000000000000000000000000000000000000000000000000014806104ce57506001600160e01b031982167f5b5e139f00000000000000000000000000000000000000000000000000000000145b8061050257507f01ffc9a7000000000000000000000000000000000000000000000000000000006001600160e01b03198316145b92915050565b60085461055c5760405162461bcd60e51b815260206004820152601860248201527f5468652047616d6520426f73732069732064656164212121000000000000000060448201526064015b60405180910390fd5b61056581611349565b8015610581575033610576826109e6565b6001600160a01b0316145b6105cd5760405162461bcd60e51b815260206004820152600760248201527f496e76616c6964000000000000000000000000000000000000000000000000006044820152606401610553565b6000818152600e60205260409020600181015461062c5760405162461bcd60e51b815260206004820152600a60248201527f4865726f652064696564000000000000000000000000000000000000000000006044820152606401610553565b60038101546008541061065057600381015460085461064b919061221c565b610653565b60005b600855600a5460018201541061067a57600a546001820154610675919061221c565b61067d565b60005b600182018190556008546040805185815260208101929092528101919091527fe12e15c40a1b1348b02f6664523d9cd57660fcd277a6acd877837b403537f9a49060600160405180910390a15050565b6060600280546106dc90612233565b80601f016020809104026020016040519081016040528092919081815260200182805461070890612233565b80156107555780601f1061072a57610100808354040283529160200191610755565b820191906000526020600020905b81548152906001019060200180831161073857829003601f168201915b5050505050905090565b600061076a82611349565b6107a0576040517fcf4700e400000000000000000000000000000000000000000000000000000000815260040160405180910390fd5b506000908152600660205260409020546001600160a01b031690565b60006107c7826109e6565b9050806001600160a01b0316836001600160a01b03161415610815576040517f943f7b8c00000000000000000000000000000000000000000000000000000000815260040160405180910390fd5b336001600160a01b038216146108655761082f813361043d565b610865576040517fcfb3b94200000000000000000000000000000000000000000000000000000000815260040160405180910390fd5b610870838383611374565b505050565b6108708383836113e8565b600e602052600090815260409020805460018201546002830154600384015460048501805460ff909516959394929391926108ba90612233565b80601f01602080910402602001604051908101604052809291908181526020018280546108e690612233565b80156109335780601f1061090857610100808354040283529160200191610933565b820191906000526020600020905b81548152906001019060200180831161091657829003601f168201915b50505050509080600501805461094890612233565b80601f016020809104026020016040519081016040528092919081815260200182805461097490612233565b80156109c15780601f10610996576101008083540402835291602001916109c1565b820191906000526020600020905b8154815290600101906020018083116109a457829003601f168201915b5050505050905086565b61087083838360405180602001604052806000815250610f4f565b60006109f182611623565b5192915050565b60006001600160a01b038216610a3a576040517f8f4eb60400000000000000000000000000000000000000000000000000000000815260040160405180910390fd5b506001600160a01b031660009081526005602052604090205467ffffffffffffffff1690565b660aa87bee538000341015610ab75760405162461bcd60e51b815260206004820152601160248201527f4e6f7420656e6f75676820616d6f756e740000000000000000000000000000006044820152606401610553565b6000610ac260105490565b9050610ace3382611758565b6000600c6000866002811115610ae657610ae6611f09565b6002811115610af757610af7611f09565b815260208101919091526040908101600020815160c081019092528054829060ff166002811115610b2a57610b2a611f09565b6002811115610b3b57610b3b611f09565b8152602001600182015481526020016002820154815260200160038201548152602001600482018054610b6d90612233565b80601f0160208091040260200160405190810160405280929190818152602001828054610b9990612233565b8015610be65780601f10610bbb57610100808354040283529160200191610be6565b820191906000526020600020905b815481529060010190602001808311610bc957829003601f168201915b50505050508152602001600582018054610bff90612233565b80601f0160208091040260200160405190810160405280929190818152602001828054610c2b90612233565b8015610c785780601f10610c4d57610100808354040283529160200191610c78565b820191906000526020600020905b815481529060010190602001808311610c5b57829003601f168201915b505050505081525050905060006040518060c00160405280876002811115610ca257610ca2611f09565b81526020848101518183015260408086015181840152606080870151908401526080830189905260a0909201879052336000908152600d8252828120879055868152600e90915220815181549293508392829060ff19166001836002811115610d0d57610d0d611f09565b02179055506020828101516001830155604083015160028301556060830151600383015560808301518051610d489260048501920190611d2d565b5060a08201518051610d64916005840191602090910190611d2d565b509050507f29923e4cac10d420506a516391ac372ad95b391abd89dc050925d1e0b87b6b4733826080015185604051610d9f9392919061226e565b60405180910390a1610db5601080546001019055565b505050505050565b600f6020526000908152604090208054610dd690612233565b80601f0160208091040260200160405190810160405280929190818152602001828054610e0290612233565b8015610e4f5780601f10610e2457610100808354040283529160200191610e4f565b820191906000526020600020905b815481529060010190602001808311610e3257829003601f168201915b505050505081565b600c602052600090815260409020805460018201546002830154600384015460048501805460ff909516959394929391926108ba90612233565b6060600380546106dc90612233565b6001600160a01b038216331415610ee3576040517fb06307db00000000000000000000000000000000000000000000000000000000815260040160405180910390fd5b3360008181526007602090815260408083206001600160a01b03871680855290835292819020805460ff191686151590811790915590519081529192917f17307eab39ab6107e8899845ad3d59bd9653f200f220920489ca2b5937696c31910160405180910390a35050565b610f5a8484846113e8565b6001600160a01b0383163b15610f9357610f7684848484611776565b610f93576040516368d2bf6b60e11b815260040160405180910390fd5b50505050565b60088054600954600a54600b805493949293919291610fb790612233565b80601f0160208091040260200160405190810160405280929190818152602001828054610fe390612233565b80156110305780601f1061100557610100808354040283529160200191611030565b820191906000526020600020905b81548152906001019060200180831161101357829003601f168201915b5050505050905084565b6000818152600e6020526040808220815160c081019092528054606093929190829060ff16600281111561107057611070611f09565b600281111561108157611081611f09565b81526020016001820154815260200160028201548152602001600382015481526020016004820180546110b390612233565b80601f01602080910402602001604051908101604052809291908181526020018280546110df90612233565b801561112c5780601f106111015761010080835404028352916020019161112c565b820191906000526020600020905b81548152906001019060200180831161110f57829003601f168201915b5050505050815260200160058201805461114590612233565b80601f016020809104026020016040519081016040528092919081815260200182805461117190612233565b80156111be5780601f10611193576101008083540402835291602001916111be565b820191906000526020600020905b8154815290600101906020018083116111a157829003601f168201915b505050505081525050905060006111d882602001516118a0565b905060006111e983604001516118a0565b905060006111fa84606001516118a0565b90506000600f60008660000151600281111561121857611218611f09565b600281111561122957611229611f09565b8152602001908152602001600020805461124290612233565b80601f016020809104026020016040519081016040528092919081815260200182805461126e90612233565b80156112bb5780601f10611290576101008083540402835291602001916112bb565b820191906000526020600020905b81548152906001019060200180831161129e57829003601f168201915b5050505050905060008560a001519050600061130d87608001516112de8b6118a0565b84868a8a8a6040516020016112f997969594939291906122bc565b6040516020818303038152906040526119d2565b90506000816040516020016113229190612518565b60408051601f198184030181529190529a9950505050505050505050565b80546001019055565b6000805482108015610502575050600090815260046020526040902054600160e01b900460ff161590565b60008281526006602052604080822080547fffffffffffffffffffffffff0000000000000000000000000000000000000000166001600160a01b0387811691821790925591518593918516917f8c5be1e5ebec7d5bd14f71427d1e84f3dd0314c0f7b2291e5b200ac8c7c3b92591a4505050565b60006113f382611623565b9050836001600160a01b031681600001516001600160a01b031614611444576040517fa114810000000000000000000000000000000000000000000000000000000000815260040160405180910390fd5b6000336001600160a01b03861614806114625750611462853361043d565b8061147d5750336114728461075f565b6001600160a01b0316145b9050806114b6576040517f59c896be00000000000000000000000000000000000000000000000000000000815260040160405180910390fd5b6001600160a01b0384166114f6576040517fea553b3400000000000000000000000000000000000000000000000000000000815260040160405180910390fd5b61150260008487611374565b6001600160a01b038581166000908152600560209081526040808320805467ffffffffffffffff1980821667ffffffffffffffff92831660001901831617909255898616808652838620805493841693831660019081018416949094179055898652600490945282852080546001600160e01b031916909417600160a01b429092169190910217835587018084529220805491939091166115d85760005482146115d8578054602086015167ffffffffffffffff16600160a01b026001600160e01b03199091166001600160a01b038a16171781555b50505082846001600160a01b0316866001600160a01b03167fddf252ad1be2c89b69c2b068fc378daa952ba7f163c4a11628f55a4df523b3ef60405160405180910390a45050505050565b60408051606081018252600080825260208201819052918101919091528160005481101561172657600081815260046020908152604091829020825160608101845290546001600160a01b0381168252600160a01b810467ffffffffffffffff1692820192909252600160e01b90910460ff161515918101829052906117245780516001600160a01b0316156116ba579392505050565b5060001901600081815260046020908152604091829020825160608101845290546001600160a01b038116808352600160a01b820467ffffffffffffffff1693830193909352600160e01b900460ff161515928101929092521561171f579392505050565b6116ba565b505b6040517fdf2d9b4200000000000000000000000000000000000000000000000000000000815260040160405180910390fd5b611772828260405180602001604052806000815250611b26565b5050565b6040517f150b7a020000000000000000000000000000000000000000000000000000000081526000906001600160a01b0385169063150b7a02906117c490339089908890889060040161255d565b602060405180830381600087803b1580156117de57600080fd5b505af192505050801561180e575060408051601f3d908101601f1916820190925261180b9181019061258f565b60015b611869573d80801561183c576040519150601f19603f3d011682016040523d82523d6000602084013e611841565b606091505b508051611861576040516368d2bf6b60e11b815260040160405180910390fd5b805181602001fd5b6001600160e01b0319167f150b7a02000000000000000000000000000000000000000000000000000000001490505b949350505050565b6060816118e057505060408051808201909152600181527f3000000000000000000000000000000000000000000000000000000000000000602082015290565b8160005b811561190a57806118f4816125ac565b91506119039050600a836125dd565b91506118e4565b60008167ffffffffffffffff81111561192557611925611fb1565b6040519080825280601f01601f19166020018201604052801561194f576020820181803683370190505b5090505b84156118985761196460018361221c565b9150611971600a866125f1565b61197c906030612605565b60f81b8183815181106119915761199161261d565b60200101907effffffffffffffffffffffffffffffffffffffffffffffffffffffffffffff1916908160001a9053506119cb600a866125dd565b9450611953565b60608151600014156119f257505060408051602081019091526000815290565b60006040518060600160405280604081526020016126536040913990506000600384516002611a219190612605565b611a2b91906125dd565b611a36906004612633565b67ffffffffffffffff811115611a4e57611a4e611fb1565b6040519080825280601f01601f191660200182016040528015611a78576020820181803683370190505b509050600182016020820185865187015b80821015611ae4576003820191508151603f8160121c168501518453600184019350603f81600c1c168501518453600184019350603f8160061c168501518453600184019350603f8116850151845350600183019250611a89565b5050600386510660018114611b005760028114611b1357611b1b565b603d6001830353603d6002830353611b1b565b603d60018303535b509195945050505050565b6000546001600160a01b038416611b69576040517f2e07630000000000000000000000000000000000000000000000000000000000815260040160405180910390fd5b82611ba0576040517fb562e8dd00000000000000000000000000000000000000000000000000000000815260040160405180910390fd5b6001600160a01b038416600081815260056020908152604080832080547fffffffffffffffffffffffffffffffff00000000000000000000000000000000811667ffffffffffffffff8083168b0181169182176801000000000000000067ffffffffffffffff1990941690921783900481168b01811690920217909155858452600490925290912080546001600160e01b0319168317600160a01b42909316929092029190911790558190818501903b15611cd8575b60405182906001600160a01b038816906000907fddf252ad1be2c89b69c2b068fc378daa952ba7f163c4a11628f55a4df523b3ef908290a4611ca16000878480600101955087611776565b611cbe576040516368d2bf6b60e11b815260040160405180910390fd5b808210611c56578260005414611cd357600080fd5b611d1d565b5b6040516001830192906001600160a01b038816906000907fddf252ad1be2c89b69c2b068fc378daa952ba7f163c4a11628f55a4df523b3ef908290a4808210611cd9575b506000908155610f939085838684565b828054611d3990612233565b90600052602060002090601f016020900481019282611d5b5760008555611da1565b82601f10611d7457805160ff1916838001178555611da1565b82800160010185558215611da1579182015b82811115611da1578251825591602001919060010190611d86565b50611dad929150611db1565b5090565b5b80821115611dad5760008155600101611db2565b6001600160e01b031981168114611ddc57600080fd5b50565b600060208284031215611df157600080fd5b8135611dfc81611dc6565b9392505050565b600060208284031215611e1557600080fd5b5035919050565b60005b83811015611e37578181015183820152602001611e1f565b83811115610f935750506000910152565b60008151808452611e60816020860160208601611e1c565b601f01601f19169290920160200192915050565b602081526000611dfc6020830184611e48565b80356001600160a01b0381168114611e9e57600080fd5b919050565b60008060408385031215611eb657600080fd5b611ebf83611e87565b946020939093013593505050565b600080600060608486031215611ee257600080fd5b611eeb84611e87565b9250611ef960208501611e87565b9150604084013590509250925092565b634e487b7160e01b600052602160045260246000fd5b600060038810611f3f57634e487b7160e01b600052602160045260246000fd5b87825286602083015285604083015284606083015260c06080830152611f6860c0830185611e48565b82810360a0840152611f7a8185611e48565b9998505050505050505050565b600060208284031215611f9957600080fd5b611dfc82611e87565b803560038110611e9e57600080fd5b634e487b7160e01b600052604160045260246000fd5b600067ffffffffffffffff80841115611fe257611fe2611fb1565b604051601f8501601f19908116603f0116810190828211818310171561200a5761200a611fb1565b8160405280935085815286868601111561202357600080fd5b858560208301376000602087830101525050509392505050565b600082601f83011261204e57600080fd5b611dfc83833560208501611fc7565b60008060006060848603121561207257600080fd5b61207b84611fa2565b9250602084013567ffffffffffffffff8082111561209857600080fd5b6120a48783880161203d565b935060408601359150808211156120ba57600080fd5b506120c78682870161203d565b9150509250925092565b6000602082840312156120e357600080fd5b611dfc82611fa2565b600080604083850312156120ff57600080fd5b61210883611e87565b91506020830135801515811461211d57600080fd5b809150509250929050565b6000806000806080858703121561213e57600080fd5b61214785611e87565b935061215560208601611e87565b925060408501359150606085013567ffffffffffffffff81111561217857600080fd5b8501601f8101871361218957600080fd5b61219887823560208401611fc7565b91505092959194509250565b8481528360208201528260408201526080606082015260006121c96080830184611e48565b9695505050505050565b600080604083850312156121e657600080fd5b6121ef83611e87565b91506121fd60208401611e87565b90509250929050565b634e487b7160e01b600052601160045260246000fd5b60008282101561222e5761222e612206565b500390565b600181811c9082168061224757607f821691505b6020821081141561226857634e487b7160e01b600052602260045260246000fd5b50919050565b6001600160a01b03841681526060602082015260006122906060830185611e48565b9050826040830152949350505050565b600081516122b2818560208601611e1c565b9290920192915050565b7f7b226e616d65223a2022000000000000000000000000000000000000000000008152600088516122f481600a850160208d01611e1c565b7f222c20224e465423223a20220000000000000000000000000000000000000000600a918401918201528851612331816016840160208d01611e1c565b7f222c20226465736372697074696f6e223a20224772616e6465204a6f676f2066601692909101918201527f69727374204e46542067616d6520746861742069732066756e222c2022696d6160368201527f6765223a20220000000000000000000000000000000000000000000000000000605682015287516123bb81605c840160208c01611e1c565b7f222c2022436c61737322203a2022000000000000000000000000000000000000605c929091019182015261250a6124e16124db61248c61248661245d612457612408606a89018f6122a0565b7f222c202261747472696275746573223a205b207b202274726169745f7479706581527f223a20224865616c746820506f696e7473222c202276616c7565223a200000006020820152603d0190565b8c6122a0565b7f2c20226d61785f76616c7565223a0000000000000000000000000000000000008152600e0190565b896122a0565b7f7d2c207b202274726169745f74797065223a202241747461636b2044616d616781527f65222c202276616c7565223a20000000000000000000000000000000000000006020820152602d0190565b866122a0565b7f7d205d7d00000000000000000000000000000000000000000000000000000000815260040190565b9a9950505050505050505050565b7f646174613a6170706c69636174696f6e2f6a736f6e3b6261736536342c00000081526000825161255081601d850160208701611e1c565b91909101601d0192915050565b60006001600160a01b038087168352808616602084015250836040830152608060608301526121c96080830184611e48565b6000602082840312156125a157600080fd5b8151611dfc81611dc6565b60006000198214156125c0576125c0612206565b5060010190565b634e487b7160e01b600052601260045260246000fd5b6000826125ec576125ec6125c7565b500490565b600082612600576126006125c7565b500690565b6000821982111561261857612618612206565b500190565b634e487b7160e01b600052603260045260246000fd5b600081600019048311821515161561264d5761264d612206565b50029056fe4142434445464748494a4b4c4d4e4f505152535455565758595a6162636465666768696a6b6c6d6e6f707172737475767778797a303132333435363738392b2fa2646970667358221220f75166e24d9fc5584c4ce20d8813ee9af83091fd7b0fdc26ddc24761bc80083e64736f6c63430008090033",
  "devdoc": {
    "kind": "dev",
    "methods": {
      "approve(address,uint256)": {
        "details": "See {IERC721-approve}."
      },
      "balanceOf(address)": {
        "details": "See {IERC721-balanceOf}."
      },
      "getApproved(uint256)": {
        "details": "See {IERC721-getApproved}."
      },
      "isApprovedForAll(address,address)": {
        "details": "See {IERC721-isApprovedForAll}."
      },
      "name()": {
        "details": "See {IERC721Metadata-name}."
      },
      "ownerOf(uint256)": {
        "details": "See {IERC721-ownerOf}."
      },
      "safeTransferFrom(address,address,uint256)": {
        "details": "See {IERC721-safeTransferFrom}."
      },
      "safeTransferFrom(address,address,uint256,bytes)": {
        "details": "See {IERC721-safeTransferFrom}."
      },
      "setApprovalForAll(address,bool)": {
        "details": "See {IERC721-setApprovalForAll}."
      },
      "supportsInterface(bytes4)": {
        "details": "See {IERC165-supportsInterface}."
      },
      "symbol()": {
        "details": "See {IERC721Metadata-symbol}."
      },
      "totalSupply()": {
        "details": "Burned tokens are calculated here, use _totalMinted() if you want to count just minted tokens."
      },
      "transferFrom(address,address,uint256)": {
        "details": "See {IERC721-transferFrom}."
      }
    },
    "version": 1
  },
  "userdoc": {
    "errors": {
      "ApprovalCallerNotOwnerNorApproved()": [
        {
          "notice": "The caller must own the token or be an approved operator."
        }
      ],
      "ApprovalQueryForNonexistentToken()": [
        {
          "notice": "The token does not exist."
        }
      ],
      "ApprovalToCurrentOwner()": [
        {
          "notice": "The caller cannot approve to the current owner."
        }
      ],
      "ApproveToCaller()": [
        {
          "notice": "The caller cannot approve to their own address."
        }
      ],
      "BalanceQueryForZeroAddress()": [
        {
          "notice": "Cannot query the balance for the zero address."
        }
      ],
      "MintToZeroAddress()": [
        {
          "notice": "Cannot mint to the zero address."
        }
      ],
      "MintZeroQuantity()": [
        {
          "notice": "The quantity of tokens minted must be more than zero."
        }
      ],
      "OwnerQueryForNonexistentToken()": [
        {
          "notice": "The token does not exist."
        }
      ],
      "TransferCallerNotOwnerNorApproved()": [
        {
          "notice": "The caller must own the token or be an approved operator."
        }
      ],
      "TransferFromIncorrectOwner()": [
        {
          "notice": "The token must be owned by `from`."
        }
      ],
      "TransferToNonERC721ReceiverImplementer()": [
        {
          "notice": "Cannot safely transfer to a contract that does not implement the ERC721Receiver interface."
        }
      ],
      "TransferToZeroAddress()": [
        {
          "notice": "Cannot transfer to the zero address."
        }
      ],
      "URIQueryForNonexistentToken()": [
        {
          "notice": "The token does not exist."
        }
      ]
    },
    "kind": "user",
    "methods": {},
    "version": 1
  },
  "storageLayout": {
    "storage": [
      {
        "astId": 860,
        "contract": "src/EpicGame/EpicGame.sol:EpicGame",
        "label": "_currentIndex",
        "offset": 0,
        "slot": "0",
        "type": "t_uint256"
      },
      {
        "astId": 862,
        "contract": "src/EpicGame/EpicGame.sol:EpicGame",
        "label": "_burnCounter",
        "offset": 0,
        "slot": "1",
        "type": "t_uint256"
      },
      {
        "astId": 864,
        "contract": "src/EpicGame/EpicGame.sol:EpicGame",
        "label": "_name",
        "offset": 0,
        "slot": "2",
        "type": "t_string_storage"
      },
      {
        "astId": 866,
        "contract": "src/EpicGame/EpicGame.sol:EpicGame",
        "label": "_symbol",
        "offset": 0,
        "slot": "3",
        "type": "t_string_storage"
      },
      {
        "astId": 871,
        "contract": "src/EpicGame/EpicGame.sol:EpicGame",
        "label": "_ownerships",
        "offset": 0,
        "slot": "4",
        "type": "t_mapping(t_uint256,t_struct(TokenOwnership)2266_storage)"
      },
      {
        "astId": 876,
        "contract": "src/EpicGame/EpicGame.sol:EpicGame",
        "label": "_addressData",
        "offset": 0,
        "slot": "5",
        "type": "t_mapping(t_address,t_struct(AddressData)2275_storage)"
      },
      {
        "astId": 880,
        "contract": "src/EpicGame/EpicGame.sol:EpicGame",
        "label": "_tokenApprovals",
        "offset": 0,
        "slot": "6",
        "type": "t_mapping(t_uint256,t_address)"
      },
      {
        "astId": 886,
        "contract": "src/EpicGame/EpicGame.sol:EpicGame",
        "label": "_operatorApprovals",
        "offset": 0,
        "slot": "7",
        "type": "t_mapping(t_address,t_mapping(t_address,t_bool))"
      },
      {
        "astId": 10385,
        "contract": "src/EpicGame/EpicGame.sol:EpicGame",
        "label": "boss",
        "offset": 0,
        "slot": "8",
        "type": "t_struct(Boss)10382_storage"
      },
      {
        "astId": 10395,
        "contract": "src/EpicGame/EpicGame.sol:EpicGame",
        "label": "baseHeroes",
        "offset": 0,
        "slot": "12",
        "type": "t_mapping(t_enum(Class)10359,t_struct(Hero)10373_storage)"
      },
      {
        "astId": 10399,
        "contract": "src/EpicGame/EpicGame.sol:EpicGame",
        "label": "nftHolders",
        "offset": 0,
        "slot": "13",
        "type": "t_mapping(t_address,t_uint256)"
      },
      {
        "astId": 10404,
        "contract": "src/EpicGame/EpicGame.sol:EpicGame",
        "label": "heroesHolderAttr",
        "offset": 0,
        "slot": "14",
        "type": "t_mapping(t_uint256,t_struct(Hero)10373_storage)"
      },
      {
        "astId": 10409,
        "contract": "src/EpicGame/EpicGame.sol:EpicGame",
        "label": "classes",
        "offset": 0,
        "slot": "15",
        "type": "t_mapping(t_enum(Class)10359,t_string_storage)"
      },
      {
        "astId": 10412,
        "contract": "src/EpicGame/EpicGame.sol:EpicGame",
        "label": "_tokenIds",
        "offset": 0,
        "slot": "16",
        "type": "t_struct(Counter)530_storage"
      }
    ],
    "types": {
      "t_address": {
        "encoding": "inplace",
        "label": "address",
        "numberOfBytes": "20"
      },
      "t_bool": {
        "encoding": "inplace",
        "label": "bool",
        "numberOfBytes": "1"
      },
      "t_enum(Class)10359": {
        "encoding": "inplace",
        "label": "enum EpicGame.Class",
        "numberOfBytes": "1"
      },
      "t_mapping(t_address,t_bool)": {
        "encoding": "mapping",
        "key": "t_address",
        "label": "mapping(address => bool)",
        "numberOfBytes": "32",
        "value": "t_bool"
      },
      "t_mapping(t_address,t_mapping(t_address,t_bool))": {
        "encoding": "mapping",
        "key": "t_address",
        "label": "mapping(address => mapping(address => bool))",
        "numberOfBytes": "32",
        "value": "t_mapping(t_address,t_bool)"
      },
      "t_mapping(t_address,t_struct(AddressData)2275_storage)": {
        "encoding": "mapping",
        "key": "t_address",
        "label": "mapping(address => struct IERC721A.AddressData)",
        "numberOfBytes": "32",
        "value": "t_struct(AddressData)2275_storage"
      },
      "t_mapping(t_address,t_uint256)": {
        "encoding": "mapping",
        "key": "t_address",
        "label": "mapping(address => uint256)",
        "numberOfBytes": "32",
        "value": "t_uint256"
      },
      "t_mapping(t_enum(Class)10359,t_string_storage)": {
        "encoding": "mapping",
        "key": "t_enum(Class)10359",
        "label": "mapping(enum EpicGame.Class => string)",
        "numberOfBytes": "32",
        "value": "t_string_storage"
      },
      "t_mapping(t_enum(Class)10359,t_struct(Hero)10373_storage)": {
        "encoding": "mapping",
        "key": "t_enum(Class)10359",
        "label": "mapping(enum EpicGame.Class => struct EpicGame.Hero)",
        "numberOfBytes": "32",
        "value": "t_struct(Hero)10373_storage"
      },
      "t_mapping(t_uint256,t_address)": {
        "encoding": "mapping",
        "key": "t_uint256",
        "label": "mapping(uint256 => address)",
        "numberOfBytes": "32",
        "value": "t_address"
      },
      "t_mapping(t_uint256,t_struct(Hero)10373_storage)": {
        "encoding": "mapping",
        "key": "t_uint256",
        "label": "mapping(uint256 => struct EpicGame.Hero)",
        "numberOfBytes": "32",
        "value": "t_struct(Hero)10373_storage"
      },
      "t_mapping(t_uint256,t_struct(TokenOwnership)2266_storage)": {
        "encoding": "mapping",
        "key": "t_uint256",
        "label": "mapping(uint256 => struct IERC721A.TokenOwnership)",
        "numberOfBytes": "32",
        "value": "t_struct(TokenOwnership)2266_storage"
      },
      "t_string_storage": {
        "encoding": "bytes",
        "label": "string",
        "numberOfBytes": "32"
      },
      "t_struct(AddressData)2275_storage": {
        "encoding": "inplace",
        "label": "struct IERC721A.AddressData",
        "members": [
          {
            "astId": 2268,
            "contract": "src/EpicGame/EpicGame.sol:EpicGame",
            "label": "balance",
            "offset": 0,
            "slot": "0",
            "type": "t_uint64"
          },
          {
            "astId": 2270,
            "contract": "src/EpicGame/EpicGame.sol:EpicGame",
            "label": "numberMinted",
            "offset": 8,
            "slot": "0",
            "type": "t_uint64"
          },
          {
            "astId": 2272,
            "contract": "src/EpicGame/EpicGame.sol:EpicGame",
            "label": "numberBurned",
            "offset": 16,
            "slot": "0",
            "type": "t_uint64"
          },
          {
            "astId": 2274,
            "contract": "src/EpicGame/EpicGame.sol:EpicGame",
            "label": "aux",
            "offset": 24,
            "slot": "0",
            "type": "t_uint64"
          }
        ],
        "numberOfBytes": "32"
      },
      "t_struct(Boss)10382_storage": {
        "encoding": "inplace",
        "label": "struct EpicGame.Boss",
        "members": [
          {
            "astId": 10375,
            "contract": "src/EpicGame/EpicGame.sol:EpicGame",
            "label": "hp",
            "offset": 0,
            "slot": "0",
            "type": "t_uint256"
          },
          {
            "astId": 10377,
            "contract": "src/EpicGame/EpicGame.sol:EpicGame",
            "label": "maxHp",
            "offset": 0,
            "slot": "1",
            "type": "t_uint256"
          },
          {
            "astId": 10379,
            "contract": "src/EpicGame/EpicGame.sol:EpicGame",
            "label": "attackDamage",
            "offset": 0,
            "slot": "2",
            "type": "t_uint256"
          },
          {
            "astId": 10381,
            "contract": "src/EpicGame/EpicGame.sol:EpicGame",
            "label": "name",
            "offset": 0,
            "slot": "3",
            "type": "t_string_storage"
          }
        ],
        "numberOfBytes": "128"
      },
      "t_struct(Counter)530_storage": {
        "encoding": "inplace",
        "label": "struct Counters.Counter",
        "members": [
          {
            "astId": 529,
            "contract": "src/EpicGame/EpicGame.sol:EpicGame",
            "label": "_value",
            "offset": 0,
            "slot": "0",
            "type": "t_uint256"
          }
        ],
        "numberOfBytes": "32"
      },
      "t_struct(Hero)10373_storage": {
        "encoding": "inplace",
        "label": "struct EpicGame.Hero",
        "members": [
          {
            "astId": 10362,
            "contract": "src/EpicGame/EpicGame.sol:EpicGame",
            "label": "heroIndex",
            "offset": 0,
            "slot": "0",
            "type": "t_enum(Class)10359"
          },
          {
            "astId": 10364,
            "contract": "src/EpicGame/EpicGame.sol:EpicGame",
            "label": "hp",
            "offset": 0,
            "slot": "1",
            "type": "t_uint256"
          },
          {
            "astId": 10366,
            "contract": "src/EpicGame/EpicGame.sol:EpicGame",
            "label": "maxHp",
            "offset": 0,
            "slot": "2",
            "type": "t_uint256"
          },
          {
            "astId": 10368,
            "contract": "src/EpicGame/EpicGame.sol:EpicGame",
            "label": "attackDamage",
            "offset": 0,
            "slot": "3",
            "type": "t_uint256"
          },
          {
            "astId": 10370,
            "contract": "src/EpicGame/EpicGame.sol:EpicGame",
            "label": "name",
            "offset": 0,
            "slot": "4",
            "type": "t_string_storage"
          },
          {
            "astId": 10372,
            "contract": "src/EpicGame/EpicGame.sol:EpicGame",
            "label": "imageURI",
            "offset": 0,
            "slot": "5",
            "type": "t_string_storage"
          }
        ],
        "numberOfBytes": "192"
      },
      "t_struct(TokenOwnership)2266_storage": {
        "encoding": "inplace",
        "label": "struct IERC721A.TokenOwnership",
        "members": [
          {
            "astId": 2261,
            "contract": "src/EpicGame/EpicGame.sol:EpicGame",
            "label": "addr",
            "offset": 0,
            "slot": "0",
            "type": "t_address"
          },
          {
            "astId": 2263,
            "contract": "src/EpicGame/EpicGame.sol:EpicGame",
            "label": "startTimestamp",
            "offset": 20,
            "slot": "0",
            "type": "t_uint64"
          },
          {
            "astId": 2265,
            "contract": "src/EpicGame/EpicGame.sol:EpicGame",
            "label": "burned",
            "offset": 28,
            "slot": "0",
            "type": "t_bool"
          }
        ],
        "numberOfBytes": "32"
      },
      "t_uint256": {
        "encoding": "inplace",
        "label": "uint256",
        "numberOfBytes": "32"
      },
      "t_uint64": {
        "encoding": "inplace",
        "label": "uint64",
        "numberOfBytes": "8"
      }
    }
  }
}