{
  "_format": "hh-sol-artifact-1",
  "contractName": "EpicGame",
  "sourceName": "contracts/EpicGame.sol",
  "abi": [
    {
      "inputs": [
        {
          "components": [
            {
              "internalType": "enum EpicGame.Class",
              "name": "heroIndex",
              "type": "uint8"
            },
            {
              "internalType": "uint256",
              "name": "hp",
              "type": "uint256"
            },
            {
              "internalType": "uint256",
              "name": "maxHp",
              "type": "uint256"
            },
            {
              "internalType": "uint256",
              "name": "attackDamage",
              "type": "uint256"
            },
            {
              "internalType": "string",
              "name": "name",
              "type": "string"
            },
            {
              "internalType": "string",
              "name": "imageURI",
              "type": "string"
            }
          ],
          "internalType": "struct EpicGame.Hero[]",
          "name": "bases",
          "type": "tuple[]"
        },
        {
          "components": [
            {
              "internalType": "uint256",
              "name": "hp",
              "type": "uint256"
            },
            {
              "internalType": "uint256",
              "name": "maxHp",
              "type": "uint256"
            },
            {
              "internalType": "uint256",
              "name": "attackDamage",
              "type": "uint256"
            },
            {
              "internalType": "string",
              "name": "name",
              "type": "string"
            }
          ],
          "internalType": "struct EpicGame.Boss",
          "name": "bossAttr",
          "type": "tuple"
        }
      ],
      "stateMutability": "nonpayable",
      "type": "constructor"
    },
    {
      "inputs": [],
      "name": "ApprovalCallerNotOwnerNorApproved",
      "type": "error"
    },
    {
      "inputs": [],
      "name": "ApprovalQueryForNonexistentToken",
      "type": "error"
    },
    {
      "inputs": [],
      "name": "ApprovalToCurrentOwner",
      "type": "error"
    },
    {
      "inputs": [],
      "name": "ApproveToCaller",
      "type": "error"
    },
    {
      "inputs": [],
      "name": "BalanceQueryForZeroAddress",
      "type": "error"
    },
    {
      "inputs": [],
      "name": "MintToZeroAddress",
      "type": "error"
    },
    {
      "inputs": [],
      "name": "MintZeroQuantity",
      "type": "error"
    },
    {
      "inputs": [],
      "name": "OwnerQueryForNonexistentToken",
      "type": "error"
    },
    {
      "inputs": [],
      "name": "TransferCallerNotOwnerNorApproved",
      "type": "error"
    },
    {
      "inputs": [],
      "name": "TransferFromIncorrectOwner",
      "type": "error"
    },
    {
      "inputs": [],
      "name": "TransferToNonERC721ReceiverImplementer",
      "type": "error"
    },
    {
      "inputs": [],
      "name": "TransferToZeroAddress",
      "type": "error"
    },
    {
      "inputs": [],
      "name": "URIQueryForNonexistentToken",
      "type": "error"
    },
    {
      "anonymous": false,
      "inputs": [
        {
          "indexed": true,
          "internalType": "address",
          "name": "owner",
          "type": "address"
        },
        {
          "indexed": true,
          "internalType": "address",
          "name": "approved",
          "type": "address"
        },
        {
          "indexed": true,
          "internalType": "uint256",
          "name": "tokenId",
          "type": "uint256"
        }
      ],
      "name": "Approval",
      "type": "event"
    },
    {
      "anonymous": false,
      "inputs": [
        {
          "indexed": true,
          "internalType": "address",
          "name": "owner",
          "type": "address"
        },
        {
          "indexed": true,
          "internalType": "address",
          "name": "operator",
          "type": "address"
        },
        {
          "indexed": false,
          "internalType": "bool",
          "name": "approved",
          "type": "bool"
        }
      ],
      "name": "ApprovalForAll",
      "type": "event"
    },
    {
      "anonymous": false,
      "inputs": [
        {
          "indexed": false,
          "internalType": "address",
          "name": "from",
          "type": "address"
        },
        {
          "indexed": false,
          "internalType": "string",
          "name": "heroName",
          "type": "string"
        },
        {
          "indexed": false,
          "internalType": "uint256",
          "name": "nftNumber",
          "type": "uint256"
        }
      ],
      "name": "CreatedHero",
      "type": "event"
    },
    {
      "anonymous": false,
      "inputs": [
        {
          "indexed": false,
          "internalType": "uint256",
          "name": "tokenId",
          "type": "uint256"
        },
        {
          "indexed": false,
          "internalType": "uint256",
          "name": "bossHp",
          "type": "uint256"
        },
        {
          "indexed": false,
          "internalType": "uint256",
          "name": "heroeHp",
          "type": "uint256"
        }
      ],
      "name": "HitBoss",
      "type": "event"
    },
    {
      "anonymous": false,
      "inputs": [
        {
          "indexed": true,
          "internalType": "address",
          "name": "from",
          "type": "address"
        },
        {
          "indexed": true,
          "internalType": "address",
          "name": "to",
          "type": "address"
        },
        {
          "indexed": true,
          "internalType": "uint256",
          "name": "tokenId",
          "type": "uint256"
        }
      ],
      "name": "Transfer",
      "type": "event"
    },
    {
      "inputs": [
        {
          "internalType": "address",
          "name": "to",
          "type": "address"
        },
        {
          "internalType": "uint256",
          "name": "tokenId",
          "type": "uint256"
        }
      ],
      "name": "approve",
      "outputs": [],
      "stateMutability": "nonpayable",
      "type": "function"
    },
    {
      "inputs": [
        {
          "internalType": "uint256",
          "name": "_tokenId",
          "type": "uint256"
        }
      ],
      "name": "attackBoss",
      "outputs": [],
      "stateMutability": "payable",
      "type": "function"
    },
    {
      "inputs": [
        {
          "internalType": "address",
          "name": "owner",
          "type": "address"
        }
      ],
      "name": "balanceOf",
      "outputs": [
        {
          "internalType": "uint256",
          "name": "",
          "type": "uint256"
        }
      ],
      "stateMutability": "view",
      "type": "function"
    },
    {
      "inputs": [
        {
          "internalType": "enum EpicGame.Class",
          "name": "",
          "type": "uint8"
        }
      ],
      "name": "baseHeroes",
      "outputs": [
        {
          "internalType": "enum EpicGame.Class",
          "name": "heroIndex",
          "type": "uint8"
        },
        {
          "internalType": "uint256",
          "name": "hp",
          "type": "uint256"
        },
        {
          "internalType": "uint256",
          "name": "maxHp",
          "type": "uint256"
        },
        {
          "internalType": "uint256",
          "name": "attackDamage",
          "type": "uint256"
        },
        {
          "internalType": "string",
          "name": "name",
          "type": "string"
        },
        {
          "internalType": "string",
          "name": "imageURI",
          "type": "string"
        }
      ],
      "stateMutability": "view",
      "type": "function"
    },
    {
      "inputs": [],
      "name": "boss",
      "outputs": [
        {
          "internalType": "uint256",
          "name": "hp",
          "type": "uint256"
        },
        {
          "internalType": "uint256",
          "name": "maxHp",
          "type": "uint256"
        },
        {
          "internalType": "uint256",
          "name": "attackDamage",
          "type": "uint256"
        },
        {
          "internalType": "string",
          "name": "name",
          "type": "string"
        }
      ],
      "stateMutability": "view",
      "type": "function"
    },
    {
      "inputs": [
        {
          "internalType": "enum EpicGame.Class",
          "name": "",
          "type": "uint8"
        }
      ],
      "name": "classes",
      "outputs": [
        {
          "internalType": "string",
          "name": "",
          "type": "string"
        }
      ],
      "stateMutability": "view",
      "type": "function"
    },
    {
      "inputs": [
        {
          "internalType": "uint256",
          "name": "tokenId",
          "type": "uint256"
        }
      ],
      "name": "getApproved",
      "outputs": [
        {
          "internalType": "address",
          "name": "",
          "type": "address"
        }
      ],
      "stateMutability": "view",
      "type": "function"
    },
    {
      "inputs": [
        {
          "internalType": "uint256",
          "name": "",
          "type": "uint256"
        }
      ],
      "name": "heroesHolderAttr",
      "outputs": [
        {
          "internalType": "enum EpicGame.Class",
          "name": "heroIndex",
          "type": "uint8"
        },
        {
          "internalType": "uint256",
          "name": "hp",
          "type": "uint256"
        },
        {
          "internalType": "uint256",
          "name": "maxHp",
          "type": "uint256"
        },
        {
          "internalType": "uint256",
          "name": "attackDamage",
          "type": "uint256"
        },
        {
          "internalType": "string",
          "name": "name",
          "type": "string"
        },
        {
          "internalType": "string",
          "name": "imageURI",
          "type": "string"
        }
      ],
      "stateMutability": "view",
      "type": "function"
    },
    {
      "inputs": [
        {
          "internalType": "address",
          "name": "owner",
          "type": "address"
        },
        {
          "internalType": "address",
          "name": "operator",
          "type": "address"
        }
      ],
      "name": "isApprovedForAll",
      "outputs": [
        {
          "internalType": "bool",
          "name": "",
          "type": "bool"
        }
      ],
      "stateMutability": "view",
      "type": "function"
    },
    {
      "inputs": [
        {
          "internalType": "enum EpicGame.Class",
          "name": "choice",
          "type": "uint8"
        },
        {
          "internalType": "string",
          "name": "_name",
          "type": "string"
        },
        {
          "internalType": "string",
          "name": "_imageURI",
          "type": "string"
        }
      ],
      "name": "mintHero",
      "outputs": [],
      "stateMutability": "payable",
      "type": "function"
    },
    {
      "inputs": [],
      "name": "name",
      "outputs": [
        {
          "internalType": "string",
          "name": "",
          "type": "string"
        }
      ],
      "stateMutability": "view",
      "type": "function"
    },
    {
      "inputs": [
        {
          "internalType": "address",
          "name": "",
          "type": "address"
        }
      ],
      "name": "nftHolders",
      "outputs": [
        {
          "internalType": "uint256",
          "name": "",
          "type": "uint256"
        }
      ],
      "stateMutability": "view",
      "type": "function"
    },
    {
      "inputs": [
        {
          "internalType": "uint256",
          "name": "tokenId",
          "type": "uint256"
        }
      ],
      "name": "ownerOf",
      "outputs": [
        {
          "internalType": "address",
          "name": "",
          "type": "address"
        }
      ],
      "stateMutability": "view",
      "type": "function"
    },
    {
      "inputs": [
        {
          "internalType": "address",
          "name": "from",
          "type": "address"
        },
        {
          "internalType": "address",
          "name": "to",
          "type": "address"
        },
        {
          "internalType": "uint256",
          "name": "tokenId",
          "type": "uint256"
        }
      ],
      "name": "safeTransferFrom",
      "outputs": [],
      "stateMutability": "nonpayable",
      "type": "function"
    },
    {
      "inputs": [
        {
          "internalType": "address",
          "name": "from",
          "type": "address"
        },
        {
          "internalType": "address",
          "name": "to",
          "type": "address"
        },
        {
          "internalType": "uint256",
          "name": "tokenId",
          "type": "uint256"
        },
        {
          "internalType": "bytes",
          "name": "_data",
          "type": "bytes"
        }
      ],
      "name": "safeTransferFrom",
      "outputs": [],
      "stateMutability": "nonpayable",
      "type": "function"
    },
    {
      "inputs": [
        {
          "internalType": "address",
          "name": "operator",
          "type": "address"
        },
        {
          "internalType": "bool",
          "name": "approved",
          "type": "bool"
        }
      ],
      "name": "setApprovalForAll",
      "outputs": [],
      "stateMutability": "nonpayable",
      "type": "function"
    },
    {
      "inputs": [
        {
          "internalType": "bytes4",
          "name": "interfaceId",
          "type": "bytes4"
        }
      ],
      "name": "supportsInterface",
      "outputs": [
        {
          "internalType": "bool",
          "name": "",
          "type": "bool"
        }
      ],
      "stateMutability": "view",
      "type": "function"
    },
    {
      "inputs": [],
      "name": "symbol",
      "outputs": [
        {
          "internalType": "string",
          "name": "",
          "type": "string"
        }
      ],
      "stateMutability": "view",
      "type": "function"
    },
    {
      "inputs": [
        {
          "internalType": "uint256",
          "name": "_tokenId",
          "type": "uint256"
        }
      ],
      "name": "tokenURI",
      "outputs": [
        {
          "internalType": "string",
          "name": "",
          "type": "string"
        }
      ],
      "stateMutability": "view",
      "type": "function"
    },
    {
      "inputs": [],
      "name": "totalSupply",
      "outputs": [
        {
          "internalType": "uint256",
          "name": "",
          "type": "uint256"
        }
      ],
      "stateMutability": "view",
      "type": "function"
    },
    {
      "inputs": [
        {
          "internalType": "address",
          "name": "from",
          "type": "address"
        },
        {
          "internalType": "address",
          "name": "to",
          "type": "address"
        },
        {
          "internalType": "uint256",
          "name": "tokenId",
          "type": "uint256"
        }
      ],
      "name": "transferFrom",
      "outputs": [],
      "stateMutability": "nonpayable",
      "type": "function"
    }
  ],
  "bytecode": "0x60806040523480156200001157600080fd5b506040516200514238038062005142833981810160405281019062000037919062000be3565b6040518060400160405280600681526020017f4865726f657300000000000000000000000000000000000000000000000000008152506040518060400160405280600381526020017f48524700000000000000000000000000000000000000000000000000000000008152508160029080519060200190620000bb929190620007f2565b508060039080519060200190620000d4929190620007f2565b50620000e5620007d760201b60201c565b600081905550505060005b8251811015620004d0576200010462000883565b8382815181106200013e577f4e487b7100000000000000000000000000000000000000000000000000000000600052603260045260246000fd5b60200260200101516080015181608001819052508382815181106200018c577f4e487b7100000000000000000000000000000000000000000000000000000000600052603260045260246000fd5b602002602001015160200151816020018181525050838281518110620001db577f4e487b7100000000000000000000000000000000000000000000000000000000600052603260045260246000fd5b6020026020010151602001518160400181815250508382815181106200022a577f4e487b7100000000000000000000000000000000000000000000000000000000600052603260045260246000fd5b60200260200101516060015181606001818152505083828151811062000279577f4e487b7100000000000000000000000000000000000000000000000000000000600052603260045260246000fd5b602002602001015160a001518160a00181905250816002811115620002c7577f4e487b7100000000000000000000000000000000000000000000000000000000600052602160045260246000fd5b8160000190600281111562000305577f4e487b7100000000000000000000000000000000000000000000000000000000600052602160045260246000fd5b9081600281111562000340577f4e487b7100000000000000000000000000000000000000000000000000000000600052602160045260246000fd5b8152505080600c600084600281111562000383577f4e487b7100000000000000000000000000000000000000000000000000000000600052602160045260246000fd5b6002811115620003bc577f4e487b7100000000000000000000000000000000000000000000000000000000600052602160045260246000fd5b6002811115620003f5577f4e487b7100000000000000000000000000000000000000000000000000000000600052602160045260246000fd5b815260200190815260200160002060008201518160000160006101000a81548160ff0219169083600281111562000455577f4e487b7100000000000000000000000000000000000000000000000000000000600052602160045260246000fd5b0217905550602082015181600101556040820151816002015560608201518160030155608082015181600401908051906020019062000496929190620007f2565b5060a0820151816005019080519060200190620004b5929190620007f2565b50905050508080620004c79062000d90565b915050620000f0565b50604051806080016040528082600001518152602001826020015181526020018260400151815260200182606001518152506008600082015181600001556020820151816001015560408201518160020155606082015181600301908051906020019062000540929190620007f2565b509050506040518060400160405280600481526020017f4d61676500000000000000000000000000000000000000000000000000000000815250600f6000806002811115620005b8577f4e487b7100000000000000000000000000000000000000000000000000000000600052602160045260246000fd5b6002811115620005f1577f4e487b7100000000000000000000000000000000000000000000000000000000600052602160045260246000fd5b8152602001908152602001600020908051906020019062000614929190620007f2565b506040518060400160405280600681526020017f4865616c65720000000000000000000000000000000000000000000000000000815250600f6000600160028111156200068a577f4e487b7100000000000000000000000000000000000000000000000000000000600052602160045260246000fd5b6002811115620006c3577f4e487b7100000000000000000000000000000000000000000000000000000000600052602160045260246000fd5b81526020019081526020016000209080519060200190620006e6929190620007f2565b506040518060400160405280600981526020017f42617262617269616e0000000000000000000000000000000000000000000000815250600f60006002808111156200075b577f4e487b7100000000000000000000000000000000000000000000000000000000600052602160045260246000fd5b600281111562000794577f4e487b7100000000000000000000000000000000000000000000000000000000600052602160045260246000fd5b81526020019081526020016000209080519060200190620007b7929190620007f2565b50620007cf6010620007dc60201b62001c531760201c565b505062000ea7565b600090565b6001816000016000828254019250508190555050565b828054620008009062000d24565b90600052602060002090601f01602090048101928262000824576000855562000870565b82601f106200083f57805160ff191683800117855562000870565b8280016001018555821562000870579182015b828111156200086f57825182559160200191906001019062000852565b5b5090506200087f9190620008f2565b5090565b6040518060c0016040528060006002811115620008c9577f4e487b7100000000000000000000000000000000000000000000000000000000600052602160045260246000fd5b815260200160008152602001600081526020016000815260200160608152602001606081525090565b5b808211156200090d576000816000905550600101620008f3565b5090565b600062000928620009228462000c7f565b62000c56565b905080838252602082019050828560208602820111156200094857600080fd5b60005b858110156200099757815167ffffffffffffffff8111156200096c57600080fd5b8086016200097b898262000aef565b855260208501945060208401935050506001810190506200094b565b5050509392505050565b6000620009b8620009b28462000cae565b62000c56565b905082815260208101848484011115620009d157600080fd5b620009de84828562000cee565b509392505050565b600082601f830112620009f857600080fd5b815162000a0a84826020860162000911565b91505092915050565b60008151905062000a248162000e7c565b92915050565b600082601f83011262000a3c57600080fd5b815162000a4e848260208601620009a1565b91505092915050565b60006080828403121562000a6a57600080fd5b62000a76608062000c56565b9050600062000a888482850162000bcc565b600083015250602062000a9e8482850162000bcc565b602083015250604062000ab48482850162000bcc565b604083015250606082015167ffffffffffffffff81111562000ad557600080fd5b62000ae38482850162000a2a565b60608301525092915050565b600060c0828403121562000b0257600080fd5b62000b0e60c062000c56565b9050600062000b208482850162000a13565b600083015250602062000b368482850162000bcc565b602083015250604062000b4c8482850162000bcc565b604083015250606062000b628482850162000bcc565b606083015250608082015167ffffffffffffffff81111562000b8357600080fd5b62000b918482850162000a2a565b60808301525060a082015167ffffffffffffffff81111562000bb257600080fd5b62000bc08482850162000a2a565b60a08301525092915050565b60008151905062000bdd8162000e8d565b92915050565b6000806040838503121562000bf757600080fd5b600083015167ffffffffffffffff81111562000c1257600080fd5b62000c2085828601620009e6565b925050602083015167ffffffffffffffff81111562000c3e57600080fd5b62000c4c8582860162000a57565b9150509250929050565b600062000c6262000c75565b905062000c70828262000d5a565b919050565b6000604051905090565b600067ffffffffffffffff82111562000c9d5762000c9c62000e3c565b5b602082029050602081019050919050565b600067ffffffffffffffff82111562000ccc5762000ccb62000e3c565b5b62000cd78262000e6b565b9050602081019050919050565b6000819050919050565b60005b8381101562000d0e57808201518184015260208101905062000cf1565b8381111562000d1e576000848401525b50505050565b6000600282049050600182168062000d3d57607f821691505b6020821081141562000d545762000d5362000e0d565b5b50919050565b62000d658262000e6b565b810181811067ffffffffffffffff8211171562000d875762000d8662000e3c565b5b80604052505050565b600062000d9d8262000ce4565b91507fffffffffffffffffffffffffffffffffffffffffffffffffffffffffffffffff82141562000dd35762000dd262000dde565b5b600182019050919050565b7f4e487b7100000000000000000000000000000000000000000000000000000000600052601160045260246000fd5b7f4e487b7100000000000000000000000000000000000000000000000000000000600052602260045260246000fd5b7f4e487b7100000000000000000000000000000000000000000000000000000000600052604160045260246000fd5b6000601f19601f8301169050919050565b6003811062000e8a57600080fd5b50565b62000e988162000ce4565b811462000ea457600080fd5b50565b61428b8062000eb76000396000f3fe60806040526004361061012a5760003560e01c806370a08231116100ab57806395d89b411161006f57806395d89b411461042a578063a22cb46514610455578063b88d4fde1461047e578063c772af39146104a7578063c87b56dd146104d5578063e985e9c5146105125761012a565b806370a0823114610315578063748a36aa14610352578063798393091461036e5780637df124a1146103ab57806384468bb7146103e85761012a565b806318160ddd116100f257806318160ddd1461021957806323b872dd146102445780632c7c03541461026d57806342842e0e146102af5780636352211e146102d85761012a565b806301ffc9a71461012f5780630619f9321461016c57806306fdde0314610188578063081812fc146101b3578063095ea7b3146101f0575b600080fd5b34801561013b57600080fd5b506101566004803603810190610151919061330e565b61054f565b604051610163919061385b565b60405180910390f35b61018660048036038101906101819190613408565b610631565b005b34801561019457600080fd5b5061019d6109b2565b6040516101aa91906138e5565b60405180910390f35b3480156101bf57600080fd5b506101da60048036038101906101d59190613408565b610a44565b6040516101e791906137b6565b60405180910390f35b3480156101fc57600080fd5b50610217600480360381019061021291906132d2565b610ac0565b005b34801561022557600080fd5b5061022e610bc5565b60405161023b91906139b7565b60405180910390f35b34801561025057600080fd5b5061026b600480360381019061026691906131cc565b610bdc565b005b34801561027957600080fd5b50610294600480360381019061028f9190613408565b610bec565b6040516102a696959493929190613876565b60405180910390f35b3480156102bb57600080fd5b506102d660048036038101906102d191906131cc565b610d45565b005b3480156102e457600080fd5b506102ff60048036038101906102fa9190613408565b610d65565b60405161030c91906137b6565b60405180910390f35b34801561032157600080fd5b5061033c60048036038101906103379190613167565b610d7b565b60405161034991906139b7565b60405180910390f35b61036c60048036038101906103679190613389565b610e4b565b005b34801561037a57600080fd5b5061039560048036038101906103909190613360565b6112d7565b6040516103a291906138e5565b60405180910390f35b3480156103b757600080fd5b506103d260048036038101906103cd9190613167565b611377565b6040516103df91906139b7565b60405180910390f35b3480156103f457600080fd5b5061040f600480360381019061040a9190613360565b61138f565b60405161042196959493929190613876565b60405180910390f35b34801561043657600080fd5b5061043f6114e8565b60405161044c91906138e5565b60405180910390f35b34801561046157600080fd5b5061047c60048036038101906104779190613296565b61157a565b005b34801561048a57600080fd5b506104a560048036038101906104a0919061321b565b6116f2565b005b3480156104b357600080fd5b506104bc61176a565b6040516104cc9493929190613a09565b60405180910390f35b3480156104e157600080fd5b506104fc60048036038101906104f79190613408565b611810565b60405161050991906138e5565b60405180910390f35b34801561051e57600080fd5b5061053960048036038101906105349190613190565b611bbf565b604051610546919061385b565b60405180910390f35b60007f80ac58cd000000000000000000000000000000000000000000000000000000007bffffffffffffffffffffffffffffffffffffffffffffffffffffffff1916827bffffffffffffffffffffffffffffffffffffffffffffffffffffffff1916148061061a57507f5b5e139f000000000000000000000000000000000000000000000000000000007bffffffffffffffffffffffffffffffffffffffffffffffffffffffff1916827bffffffffffffffffffffffffffffffffffffffffffffffffffffffff1916145b8061062a575061062982611c69565b5b9050919050565b600060086000015411610679576040517f08c379a000000000000000000000000000000000000000000000000000000000815260040161067090613977565b60405180910390fd5b61068281611cd3565b80156106c157503373ffffffffffffffffffffffffffffffffffffffff166106a982610d65565b73ffffffffffffffffffffffffffffffffffffffff16145b610700576040517f08c379a00000000000000000000000000000000000000000000000000000000081526004016106f790613957565b60405180910390fd5b6000600e60008381526020019081526020016000209050600081600101541161075e576040517f08c379a000000000000000000000000000000000000000000000000000000000815260040161075590613937565b60405180910390fd5b6107a26040518060400160405280600b81526020017f424f4f5353204850202573000000000000000000000000000000000000000000815250600860000154611d21565b6107e56040518060400160405280600b81526020017f4845524f452048502025730000000000000000000000000000000000000000008152508260010154611d21565b80600301546008600001541061080f57806003015460086000015461080a9190613c00565b610812565b60005b6008600001819055506008600201548160010154106108455760086002015481600101546108409190613c00565b610848565b60005b816001018190555061088e6040518060400160405280601281526020017f2d2d2d2d2d2d2d2d2d2d2d2d2d2d2d2d2d2d0000000000000000000000000000815250611dbd565b6108d26040518060400160405280600b81526020017f424f4f5353204850202573000000000000000000000000000000000000000000815250600860000154611d21565b6109156040518060400160405280600b81526020017f4845524f452048502025730000000000000000000000000000000000000000008152508260010154611d21565b61096a6040518060400160405280601281526020017f4845524f4520485020686f6c6464722025730000000000000000000000000000815250600e600085815260200190815260200160002060010154611d21565b7fe12e15c40a1b1348b02f6664523d9cd57660fcd277a6acd877837b403537f9a48260086000015483600101546040516109a6939291906139d2565b60405180910390a15050565b6060600280546109c190613d0f565b80601f01602080910402602001604051908101604052809291908181526020018280546109ed90613d0f565b8015610a3a5780601f10610a0f57610100808354040283529160200191610a3a565b820191906000526020600020905b815481529060010190602001808311610a1d57829003601f168201915b5050505050905090565b6000610a4f82611cd3565b610a85576040517fcf4700e400000000000000000000000000000000000000000000000000000000815260040160405180910390fd5b6006600083815260200190815260200160002060009054906101000a900473ffffffffffffffffffffffffffffffffffffffff169050919050565b6000610acb82610d65565b90508073ffffffffffffffffffffffffffffffffffffffff168373ffffffffffffffffffffffffffffffffffffffff161415610b33576040517f943f7b8c00000000000000000000000000000000000000000000000000000000815260040160405180910390fd5b8073ffffffffffffffffffffffffffffffffffffffff16610b52611e56565b73ffffffffffffffffffffffffffffffffffffffff1614610bb557610b7e81610b79611e56565b611bbf565b610bb4576040517fcfb3b94200000000000000000000000000000000000000000000000000000000815260040160405180910390fd5b5b610bc0838383611e5e565b505050565b6000610bcf611f10565b6001546000540303905090565b610be7838383611f15565b505050565b600e6020528060005260406000206000915090508060000160009054906101000a900460ff1690806001015490806002015490806003015490806004018054610c3490613d0f565b80601f0160208091040260200160405190810160405280929190818152602001828054610c6090613d0f565b8015610cad5780601f10610c8257610100808354040283529160200191610cad565b820191906000526020600020905b815481529060010190602001808311610c9057829003601f168201915b505050505090806005018054610cc290613d0f565b80601f0160208091040260200160405190810160405280929190818152602001828054610cee90613d0f565b8015610d3b5780601f10610d1057610100808354040283529160200191610d3b565b820191906000526020600020905b815481529060010190602001808311610d1e57829003601f168201915b5050505050905086565b610d60838383604051806020016040528060008152506116f2565b505050565b6000610d70826123cb565b600001519050919050565b60008073ffffffffffffffffffffffffffffffffffffffff168273ffffffffffffffffffffffffffffffffffffffff161415610de3576040517f8f4eb60400000000000000000000000000000000000000000000000000000000815260040160405180910390fd5b600560008373ffffffffffffffffffffffffffffffffffffffff1673ffffffffffffffffffffffffffffffffffffffff16815260200190815260200160002060000160009054906101000a900467ffffffffffffffff1667ffffffffffffffff169050919050565b660aa87bee538000341015610e95576040517f08c379a0000000000000000000000000000000000000000000000000000000008152600401610e8c90613997565b60405180910390fd5b6000610ea16010612656565b9050610ead3382612664565b6000600c6000866002811115610eec577f4e487b7100000000000000000000000000000000000000000000000000000000600052602160045260246000fd5b6002811115610f24577f4e487b7100000000000000000000000000000000000000000000000000000000600052602160045260246000fd5b81526020019081526020016000206040518060c00160405290816000820160009054906101000a900460ff166002811115610f88577f4e487b7100000000000000000000000000000000000000000000000000000000600052602160045260246000fd5b6002811115610fc0577f4e487b7100000000000000000000000000000000000000000000000000000000600052602160045260246000fd5b8152602001600182015481526020016002820154815260200160038201548152602001600482018054610ff290613d0f565b80601f016020809104026020016040519081016040528092919081815260200182805461101e90613d0f565b801561106b5780601f106110405761010080835404028352916020019161106b565b820191906000526020600020905b81548152906001019060200180831161104e57829003601f168201915b5050505050815260200160058201805461108490613d0f565b80601f01602080910402602001604051908101604052809291908181526020018280546110b090613d0f565b80156110fd5780601f106110d2576101008083540402835291602001916110fd565b820191906000526020600020905b8154815290600101906020018083116110e057829003601f168201915b505050505081525050905060006040518060c0016040528087600281111561114e577f4e487b7100000000000000000000000000000000000000000000000000000000600052602160045260246000fd5b815260200183602001518152602001836040015181526020018360600151815260200186815260200185815250905082600d60003373ffffffffffffffffffffffffffffffffffffffff1673ffffffffffffffffffffffffffffffffffffffff1681526020019081526020016000208190555080600e600085815260200190815260200160002060008201518160000160006101000a81548160ff02191690836002811115611226577f4e487b7100000000000000000000000000000000000000000000000000000000600052602160045260246000fd5b02179055506020820151816001015560408201518160020155606082015181600301556080820151816004019080519060200190611265929190612f33565b5060a0820151816005019080519060200190611282929190612f33565b509050507f29923e4cac10d420506a516391ac372ad95b391abd89dc050925d1e0b87b6b47338260800151856040516112bd9392919061381d565b60405180910390a16112cf6010611c53565b505050505050565b600f60205280600052604060002060009150905080546112f690613d0f565b80601f016020809104026020016040519081016040528092919081815260200182805461132290613d0f565b801561136f5780601f106113445761010080835404028352916020019161136f565b820191906000526020600020905b81548152906001019060200180831161135257829003601f168201915b505050505081565b600d6020528060005260406000206000915090505481565b600c6020528060005260406000206000915090508060000160009054906101000a900460ff16908060010154908060020154908060030154908060040180546113d790613d0f565b80601f016020809104026020016040519081016040528092919081815260200182805461140390613d0f565b80156114505780601f1061142557610100808354040283529160200191611450565b820191906000526020600020905b81548152906001019060200180831161143357829003601f168201915b50505050509080600501805461146590613d0f565b80601f016020809104026020016040519081016040528092919081815260200182805461149190613d0f565b80156114de5780601f106114b3576101008083540402835291602001916114de565b820191906000526020600020905b8154815290600101906020018083116114c157829003601f168201915b5050505050905086565b6060600380546114f790613d0f565b80601f016020809104026020016040519081016040528092919081815260200182805461152390613d0f565b80156115705780601f1061154557610100808354040283529160200191611570565b820191906000526020600020905b81548152906001019060200180831161155357829003601f168201915b5050505050905090565b611582611e56565b73ffffffffffffffffffffffffffffffffffffffff168273ffffffffffffffffffffffffffffffffffffffff1614156115e7576040517fb06307db00000000000000000000000000000000000000000000000000000000815260040160405180910390fd5b80600760006115f4611e56565b73ffffffffffffffffffffffffffffffffffffffff1673ffffffffffffffffffffffffffffffffffffffff16815260200190815260200160002060008473ffffffffffffffffffffffffffffffffffffffff1673ffffffffffffffffffffffffffffffffffffffff16815260200190815260200160002060006101000a81548160ff0219169083151502179055508173ffffffffffffffffffffffffffffffffffffffff166116a1611e56565b73ffffffffffffffffffffffffffffffffffffffff167f17307eab39ab6107e8899845ad3d59bd9653f200f220920489ca2b5937696c31836040516116e6919061385b565b60405180910390a35050565b6116fd848484611f15565b61171c8373ffffffffffffffffffffffffffffffffffffffff16612682565b156117645761172d848484846126a5565b611763576040517fd1a57ed600000000000000000000000000000000000000000000000000000000815260040160405180910390fd5b5b50505050565b600880600001549080600101549080600201549080600301805461178d90613d0f565b80601f01602080910402602001604051908101604052809291908181526020018280546117b990613d0f565b80156118065780601f106117db57610100808354040283529160200191611806565b820191906000526020600020905b8154815290600101906020018083116117e957829003601f168201915b5050505050905084565b60606000600e60008481526020019081526020016000206040518060c00160405290816000820160009054906101000a900460ff16600281111561187d577f4e487b7100000000000000000000000000000000000000000000000000000000600052602160045260246000fd5b60028111156118b5577f4e487b7100000000000000000000000000000000000000000000000000000000600052602160045260246000fd5b81526020016001820154815260200160028201548152602001600382015481526020016004820180546118e790613d0f565b80601f016020809104026020016040519081016040528092919081815260200182805461191390613d0f565b80156119605780601f1061193557610100808354040283529160200191611960565b820191906000526020600020905b81548152906001019060200180831161194357829003601f168201915b5050505050815260200160058201805461197990613d0f565b80601f01602080910402602001604051908101604052809291908181526020018280546119a590613d0f565b80156119f25780601f106119c7576101008083540402835291602001916119f2565b820191906000526020600020905b8154815290600101906020018083116119d557829003601f168201915b50505050508152505090506000611a0c8260200151612805565b90506000611a1d8360400151612805565b90506000611a2e8460600151612805565b90506000600f600086600001516002811115611a73577f4e487b7100000000000000000000000000000000000000000000000000000000600052602160045260246000fd5b6002811115611aab577f4e487b7100000000000000000000000000000000000000000000000000000000600052602160045260246000fd5b81526020019081526020016000208054611ac490613d0f565b80601f0160208091040260200160405190810160405280929190818152602001828054611af090613d0f565b8015611b3d5780601f10611b1257610100808354040283529160200191611b3d565b820191906000526020600020905b815481529060010190602001808311611b2057829003601f168201915b505050505090506000611b8a8660800151611b578a612805565b8860a0015185898989604051602001611b7697969594939291906136d7565b6040516020818303038152906040526129b2565b9050600081604051602001611b9f9190613794565b604051602081830303815290604052905080975050505050505050919050565b6000600760008473ffffffffffffffffffffffffffffffffffffffff1673ffffffffffffffffffffffffffffffffffffffff16815260200190815260200160002060008373ffffffffffffffffffffffffffffffffffffffff1673ffffffffffffffffffffffffffffffffffffffff16815260200190815260200160002060009054906101000a900460ff16905092915050565b6001816000016000828254019250508190555050565b60007f01ffc9a7000000000000000000000000000000000000000000000000000000007bffffffffffffffffffffffffffffffffffffffffffffffffffffffff1916827bffffffffffffffffffffffffffffffffffffffffffffffffffffffff1916149050919050565b600081611cde611f10565b11158015611ced575060005482105b8015611d1a575060046000838152602001908152602001600020600001601c9054906101000a900460ff16155b9050919050565b611db98282604051602401611d37929190613907565b6040516020818303038152906040527f9710a9d0000000000000000000000000000000000000000000000000000000007bffffffffffffffffffffffffffffffffffffffffffffffffffffffff19166020820180517bffffffffffffffffffffffffffffffffffffffffffffffffffffffff8381831617835250505050612b3c565b5050565b611e5381604051602401611dd191906138e5565b6040516020818303038152906040527f41304fac000000000000000000000000000000000000000000000000000000007bffffffffffffffffffffffffffffffffffffffffffffffffffffffff19166020820180517bffffffffffffffffffffffffffffffffffffffffffffffffffffffff8381831617835250505050612b3c565b50565b600033905090565b826006600084815260200190815260200160002060006101000a81548173ffffffffffffffffffffffffffffffffffffffff021916908373ffffffffffffffffffffffffffffffffffffffff160217905550818373ffffffffffffffffffffffffffffffffffffffff168273ffffffffffffffffffffffffffffffffffffffff167f8c5be1e5ebec7d5bd14f71427d1e84f3dd0314c0f7b2291e5b200ac8c7c3b92560405160405180910390a4505050565b600090565b6000611f20826123cb565b90508373ffffffffffffffffffffffffffffffffffffffff16816000015173ffffffffffffffffffffffffffffffffffffffff1614611f8b576040517fa114810000000000000000000000000000000000000000000000000000000000815260040160405180910390fd5b60008473ffffffffffffffffffffffffffffffffffffffff16611fac611e56565b73ffffffffffffffffffffffffffffffffffffffff161480611fdb5750611fda85611fd5611e56565b611bbf565b5b806120205750611fe9611e56565b73ffffffffffffffffffffffffffffffffffffffff1661200884610a44565b73ffffffffffffffffffffffffffffffffffffffff16145b905080612059576040517f59c896be00000000000000000000000000000000000000000000000000000000815260040160405180910390fd5b600073ffffffffffffffffffffffffffffffffffffffff168473ffffffffffffffffffffffffffffffffffffffff1614156120c0576040517fea553b3400000000000000000000000000000000000000000000000000000000815260040160405180910390fd5b6120cd8585856001612b65565b6120d960008487611e5e565b6001600560008773ffffffffffffffffffffffffffffffffffffffff1673ffffffffffffffffffffffffffffffffffffffff16815260200190815260200160002060000160008282829054906101000a900467ffffffffffffffff160392506101000a81548167ffffffffffffffff021916908367ffffffffffffffff1602179055506001600560008673ffffffffffffffffffffffffffffffffffffffff1673ffffffffffffffffffffffffffffffffffffffff16815260200190815260200160002060000160008282829054906101000a900467ffffffffffffffff160192506101000a81548167ffffffffffffffff021916908367ffffffffffffffff1602179055506000600460008581526020019081526020016000209050848160000160006101000a81548173ffffffffffffffffffffffffffffffffffffffff021916908373ffffffffffffffffffffffffffffffffffffffff160217905550428160000160146101000a81548167ffffffffffffffff021916908367ffffffffffffffff16021790555060006001850190506000600460008381526020019081526020016000209050600073ffffffffffffffffffffffffffffffffffffffff168160000160009054906101000a900473ffffffffffffffffffffffffffffffffffffffff1673ffffffffffffffffffffffffffffffffffffffff16141561235957600054821461235857878160000160006101000a81548173ffffffffffffffffffffffffffffffffffffffff021916908373ffffffffffffffffffffffffffffffffffffffff16021790555084602001518160000160146101000a81548167ffffffffffffffff021916908367ffffffffffffffff1602179055505b5b505050828473ffffffffffffffffffffffffffffffffffffffff168673ffffffffffffffffffffffffffffffffffffffff167fddf252ad1be2c89b69c2b068fc378daa952ba7f163c4a11628f55a4df523b3ef60405160405180910390a46123c48585856001612b6b565b5050505050565b6123d3612fb9565b6000829050806123e1611f10565b1161261f5760005481101561261e576000600460008381526020019081526020016000206040518060600160405290816000820160009054906101000a900473ffffffffffffffffffffffffffffffffffffffff1673ffffffffffffffffffffffffffffffffffffffff1673ffffffffffffffffffffffffffffffffffffffff1681526020016000820160149054906101000a900467ffffffffffffffff1667ffffffffffffffff1667ffffffffffffffff16815260200160008201601c9054906101000a900460ff1615151515815250509050806040015161261c57600073ffffffffffffffffffffffffffffffffffffffff16816000015173ffffffffffffffffffffffffffffffffffffffff1614612500578092505050612651565b5b60011561261b57818060019003925050600460008381526020019081526020016000206040518060600160405290816000820160009054906101000a900473ffffffffffffffffffffffffffffffffffffffff1673ffffffffffffffffffffffffffffffffffffffff1673ffffffffffffffffffffffffffffffffffffffff1681526020016000820160149054906101000a900467ffffffffffffffff1667ffffffffffffffff1667ffffffffffffffff16815260200160008201601c9054906101000a900460ff1615151515815250509050600073ffffffffffffffffffffffffffffffffffffffff16816000015173ffffffffffffffffffffffffffffffffffffffff1614612616578092505050612651565b612501565b5b505b5b6040517fdf2d9b4200000000000000000000000000000000000000000000000000000000815260040160405180910390fd5b919050565b600081600001549050919050565b61267e828260405180602001604052806000815250612b71565b5050565b6000808273ffffffffffffffffffffffffffffffffffffffff163b119050919050565b60008373ffffffffffffffffffffffffffffffffffffffff1663150b7a026126cb611e56565b8786866040518563ffffffff1660e01b81526004016126ed94939291906137d1565b602060405180830381600087803b15801561270757600080fd5b505af192505050801561273857506040513d601f19601f820116820180604052508101906127359190613337565b60015b6127b2573d8060008114612768576040519150601f19603f3d011682016040523d82523d6000602084013e61276d565b606091505b506000815114156127aa576040517fd1a57ed600000000000000000000000000000000000000000000000000000000815260040160405180910390fd5b805181602001fd5b63150b7a0260e01b7bffffffffffffffffffffffffffffffffffffffffffffffffffffffff1916817bffffffffffffffffffffffffffffffffffffffffffffffffffffffff191614915050949350505050565b6060600082141561284d576040518060400160405280600181526020017f300000000000000000000000000000000000000000000000000000000000000081525090506129ad565b600082905060005b6000821461287f57808061286890613d72565b915050600a826128789190613b75565b9150612855565b60008167ffffffffffffffff8111156128c1577f4e487b7100000000000000000000000000000000000000000000000000000000600052604160045260246000fd5b6040519080825280601f01601f1916602001820160405280156128f35781602001600182028036833780820191505090505b5090505b600085146129a65760018261290c9190613c00565b9150600a8561291b9190613dbb565b60306129279190613b1f565b60f81b818381518110612963577f4e487b7100000000000000000000000000000000000000000000000000000000600052603260045260246000fd5b60200101907effffffffffffffffffffffffffffffffffffffffffffffffffffffffffffff1916908160001a905350600a8561299f9190613b75565b94506128f7565b8093505050505b919050565b60606000825114156129d557604051806020016040528060008152509050612b37565b60006040518060600160405280604081526020016142166040913990506000600360028551612a049190613b1f565b612a0e9190613b75565b6004612a1a9190613ba6565b67ffffffffffffffff811115612a59577f4e487b7100000000000000000000000000000000000000000000000000000000600052604160045260246000fd5b6040519080825280601f01601f191660200182016040528015612a8b5781602001600182028036833780820191505090505b509050600182016020820185865187015b80821015612af7576003820191508151603f8160121c168501518453600184019350603f81600c1c168501518453600184019350603f8160061c168501518453600184019350603f8116850151845360018401935050612a9c565b5050600386510660018114612b135760028114612b2657612b2e565b603d6001830353603d6002830353612b2e565b603d60018303535b50505080925050505b919050565b60008151905060006a636f6e736f6c652e6c6f679050602083016000808483855afa5050505050565b50505050565b50505050565b600080549050600073ffffffffffffffffffffffffffffffffffffffff168473ffffffffffffffffffffffffffffffffffffffff161415612bde576040517f2e07630000000000000000000000000000000000000000000000000000000000815260040160405180910390fd5b6000831415612c19576040517fb562e8dd00000000000000000000000000000000000000000000000000000000815260040160405180910390fd5b612c266000858386612b65565b82600560008673ffffffffffffffffffffffffffffffffffffffff1673ffffffffffffffffffffffffffffffffffffffff16815260200190815260200160002060000160008282829054906101000a900467ffffffffffffffff160192506101000a81548167ffffffffffffffff021916908367ffffffffffffffff16021790555082600560008673ffffffffffffffffffffffffffffffffffffffff1673ffffffffffffffffffffffffffffffffffffffff16815260200190815260200160002060000160088282829054906101000a900467ffffffffffffffff160192506101000a81548167ffffffffffffffff021916908367ffffffffffffffff160217905550836004600083815260200190815260200160002060000160006101000a81548173ffffffffffffffffffffffffffffffffffffffff021916908373ffffffffffffffffffffffffffffffffffffffff160217905550426004600083815260200190815260200160002060000160146101000a81548167ffffffffffffffff021916908367ffffffffffffffff160217905550600081905060008482019050612de78673ffffffffffffffffffffffffffffffffffffffff16612682565b15612eac575b818673ffffffffffffffffffffffffffffffffffffffff16600073ffffffffffffffffffffffffffffffffffffffff167fddf252ad1be2c89b69c2b068fc378daa952ba7f163c4a11628f55a4df523b3ef60405160405180910390a4612e5c60008784806001019550876126a5565b612e92576040517fd1a57ed600000000000000000000000000000000000000000000000000000000815260040160405180910390fd5b808210612ded578260005414612ea757600080fd5b612f17565b5b818060010192508673ffffffffffffffffffffffffffffffffffffffff16600073ffffffffffffffffffffffffffffffffffffffff167fddf252ad1be2c89b69c2b068fc378daa952ba7f163c4a11628f55a4df523b3ef60405160405180910390a4808210612ead575b816000819055505050612f2d6000858386612b6b565b50505050565b828054612f3f90613d0f565b90600052602060002090601f016020900481019282612f615760008555612fa8565b82601f10612f7a57805160ff1916838001178555612fa8565b82800160010185558215612fa8579182015b82811115612fa7578251825591602001919060010190612f8c565b5b509050612fb59190612ffc565b5090565b6040518060600160405280600073ffffffffffffffffffffffffffffffffffffffff168152602001600067ffffffffffffffff1681526020016000151581525090565b5b80821115613015576000816000905550600101612ffd565b5090565b600061302c61302784613a7a565b613a55565b90508281526020810184848401111561304457600080fd5b61304f848285613ccd565b509392505050565b600061306a61306584613aab565b613a55565b90508281526020810184848401111561308257600080fd5b61308d848285613ccd565b509392505050565b6000813590506130a4816141a9565b92915050565b6000813590506130b9816141c0565b92915050565b6000813590506130ce816141d7565b92915050565b6000815190506130e3816141d7565b92915050565b600082601f8301126130fa57600080fd5b813561310a848260208601613019565b91505092915050565b600081359050613122816141ee565b92915050565b600082601f83011261313957600080fd5b8135613149848260208601613057565b91505092915050565b600081359050613161816141fe565b92915050565b60006020828403121561317957600080fd5b600061318784828501613095565b91505092915050565b600080604083850312156131a357600080fd5b60006131b185828601613095565b92505060206131c285828601613095565b9150509250929050565b6000806000606084860312156131e157600080fd5b60006131ef86828701613095565b935050602061320086828701613095565b925050604061321186828701613152565b9150509250925092565b6000806000806080858703121561323157600080fd5b600061323f87828801613095565b945050602061325087828801613095565b935050604061326187828801613152565b925050606085013567ffffffffffffffff81111561327e57600080fd5b61328a878288016130e9565b91505092959194509250565b600080604083850312156132a957600080fd5b60006132b785828601613095565b92505060206132c8858286016130aa565b9150509250929050565b600080604083850312156132e557600080fd5b60006132f385828601613095565b925050602061330485828601613152565b9150509250929050565b60006020828403121561332057600080fd5b600061332e848285016130bf565b91505092915050565b60006020828403121561334957600080fd5b6000613357848285016130d4565b91505092915050565b60006020828403121561337257600080fd5b600061338084828501613113565b91505092915050565b60008060006060848603121561339e57600080fd5b60006133ac86828701613113565b935050602084013567ffffffffffffffff8111156133c957600080fd5b6133d586828701613128565b925050604084013567ffffffffffffffff8111156133f257600080fd5b6133fe86828701613128565b9150509250925092565b60006020828403121561341a57600080fd5b600061342884828501613152565b91505092915050565b61343a81613c34565b82525050565b61344981613c46565b82525050565b600061345a82613adc565b6134648185613af2565b9350613474818560208601613cdc565b61347d81613ed7565b840191505092915050565b61349181613cbb565b82525050565b60006134a282613ae7565b6134ac8185613b03565b93506134bc818560208601613cdc565b6134c581613ed7565b840191505092915050565b60006134db82613ae7565b6134e58185613b14565b93506134f5818560208601613cdc565b80840191505092915050565b600061350e600a83613b03565b915061351982613ee8565b602082019050919050565b6000613531600b83613b14565b915061353c82613f11565b600b82019050919050565b6000613554600e83613b14565b915061355f82613f3a565b600e82019050919050565b6000613577600e83613b14565b915061358282613f63565b600e82019050919050565b600061359a600483613b14565b91506135a582613f8c565b600482019050919050565b60006135bd604683613b14565b91506135c882613fb5565b604682019050919050565b60006135e0600a83613b14565b91506135eb8261402a565b600a82019050919050565b6000613603601d83613b14565b915061360e82614053565b601d82019050919050565b6000613626600783613b03565b91506136318261407c565b602082019050919050565b6000613649603d83613b14565b9150613654826140a5565b603d82019050919050565b600061366c602d83613b14565b9150613677826140f4565b602d82019050919050565b600061368f601883613b03565b915061369a82614143565b602082019050919050565b60006136b2601183613b03565b91506136bd8261416c565b602082019050919050565b6136d181613cb1565b82525050565b60006136e2826135d3565b91506136ee828a6134d0565b91506136f982613524565b915061370582896134d0565b9150613710826135b0565b915061371c82886134d0565b915061372782613547565b915061373382876134d0565b915061373e8261363c565b915061374a82866134d0565b91506137558261356a565b915061376182856134d0565b915061376c8261365f565b915061377882846134d0565b91506137838261358d565b915081905098975050505050505050565b600061379f826135f6565b91506137ab82846134d0565b915081905092915050565b60006020820190506137cb6000830184613431565b92915050565b60006080820190506137e66000830187613431565b6137f36020830186613431565b61380060408301856136c8565b8181036060830152613812818461344f565b905095945050505050565b60006060820190506138326000830186613431565b81810360208301526138448185613497565b905061385360408301846136c8565b949350505050565b60006020820190506138706000830184613440565b92915050565b600060c08201905061388b6000830189613488565b61389860208301886136c8565b6138a560408301876136c8565b6138b260608301866136c8565b81810360808301526138c48185613497565b905081810360a08301526138d88184613497565b9050979650505050505050565b600060208201905081810360008301526138ff8184613497565b905092915050565b600060408201905081810360008301526139218185613497565b905061393060208301846136c8565b9392505050565b6000602082019050818103600083015261395081613501565b9050919050565b6000602082019050818103600083015261397081613619565b9050919050565b6000602082019050818103600083015261399081613682565b9050919050565b600060208201905081810360008301526139b0816136a5565b9050919050565b60006020820190506139cc60008301846136c8565b92915050565b60006060820190506139e760008301866136c8565b6139f460208301856136c8565b613a0160408301846136c8565b949350505050565b6000608082019050613a1e60008301876136c8565b613a2b60208301866136c8565b613a3860408301856136c8565b8181036060830152613a4a8184613497565b905095945050505050565b6000613a5f613a70565b9050613a6b8282613d41565b919050565b6000604051905090565b600067ffffffffffffffff821115613a9557613a94613ea8565b5b613a9e82613ed7565b9050602081019050919050565b600067ffffffffffffffff821115613ac657613ac5613ea8565b5b613acf82613ed7565b9050602081019050919050565b600081519050919050565b600081519050919050565b600082825260208201905092915050565b600082825260208201905092915050565b600081905092915050565b6000613b2a82613cb1565b9150613b3583613cb1565b9250827fffffffffffffffffffffffffffffffffffffffffffffffffffffffffffffffff03821115613b6a57613b69613dec565b5b828201905092915050565b6000613b8082613cb1565b9150613b8b83613cb1565b925082613b9b57613b9a613e1b565b5b828204905092915050565b6000613bb182613cb1565b9150613bbc83613cb1565b9250817fffffffffffffffffffffffffffffffffffffffffffffffffffffffffffffffff0483118215151615613bf557613bf4613dec565b5b828202905092915050565b6000613c0b82613cb1565b9150613c1683613cb1565b925082821015613c2957613c28613dec565b5b828203905092915050565b6000613c3f82613c91565b9050919050565b60008115159050919050565b60007fffffffff0000000000000000000000000000000000000000000000000000000082169050919050565b6000819050613c8c82614195565b919050565b600073ffffffffffffffffffffffffffffffffffffffff82169050919050565b6000819050919050565b6000613cc682613c7e565b9050919050565b82818337600083830152505050565b60005b83811015613cfa578082015181840152602081019050613cdf565b83811115613d09576000848401525b50505050565b60006002820490506001821680613d2757607f821691505b60208210811415613d3b57613d3a613e79565b5b50919050565b613d4a82613ed7565b810181811067ffffffffffffffff82111715613d6957613d68613ea8565b5b80604052505050565b6000613d7d82613cb1565b91507fffffffffffffffffffffffffffffffffffffffffffffffffffffffffffffffff821415613db057613daf613dec565b5b600182019050919050565b6000613dc682613cb1565b9150613dd183613cb1565b925082613de157613de0613e1b565b5b828206905092915050565b7f4e487b7100000000000000000000000000000000000000000000000000000000600052601160045260246000fd5b7f4e487b7100000000000000000000000000000000000000000000000000000000600052601260045260246000fd5b7f4e487b7100000000000000000000000000000000000000000000000000000000600052602160045260246000fd5b7f4e487b7100000000000000000000000000000000000000000000000000000000600052602260045260246000fd5b7f4e487b7100000000000000000000000000000000000000000000000000000000600052604160045260246000fd5b6000601f19601f8301169050919050565b7f4865726f65206469656400000000000000000000000000000000000000000000600082015250565b7f202d2d204e465420233a20000000000000000000000000000000000000000000600082015250565b7f222c2022436c61737322203a2022000000000000000000000000000000000000600082015250565b7f2c20226d61785f76616c7565223a000000000000000000000000000000000000600082015250565b7f7d205d7d00000000000000000000000000000000000000000000000000000000600082015250565b7f222c20226465736372697074696f6e223a20224772616e6465204a6f676f206660008201527f69727374204e46542067616d6520746861742069732066756e222c2022696d6160208201527f6765223a20220000000000000000000000000000000000000000000000000000604082015250565b7f7b226e616d65223a202200000000000000000000000000000000000000000000600082015250565b7f646174613a6170706c69636174696f6e2f6a736f6e3b6261736536342c000000600082015250565b7f496e76616c696400000000000000000000000000000000000000000000000000600082015250565b7f222c202261747472696275746573223a205b207b202274726169745f7479706560008201527f223a20224865616c746820506f696e7473222c202276616c7565223a20000000602082015250565b7f7d2c207b202274726169745f74797065223a202241747461636b2044616d616760008201527f65222c202276616c7565223a2000000000000000000000000000000000000000602082015250565b7f5468652047616d6520426f737320697320646561642121210000000000000000600082015250565b7f4e6f7420656e6f75676820616d6f756e74000000000000000000000000000000600082015250565b600381106141a6576141a5613e4a565b5b50565b6141b281613c34565b81146141bd57600080fd5b50565b6141c981613c46565b81146141d457600080fd5b50565b6141e081613c52565b81146141eb57600080fd5b50565b600381106141fb57600080fd5b50565b61420781613cb1565b811461421257600080fd5b5056fe4142434445464748494a4b4c4d4e4f505152535455565758595a6162636465666768696a6b6c6d6e6f707172737475767778797a303132333435363738392b2fa2646970667358221220d97b5efe78b087af767a8906560a27835328f78a123d86bd7ed53f6d3e44b56a64736f6c63430008040033",
  "linkReferences": {},
  "deployedLinkReferences": {}
}